:100000000C94B3000C94AE050C94D4000C94D40062
:100010000C94D4000C9479060C9454060C94D400DF
:100020000C94D4000C94D4000C94D4000C94D40000
:100030000C94D4000C94D4000C94D4000C94D400F0
:100040000C94D4000C94D4000C94D4000C94D400E0
:100050000C94D4000C94D4000C94D4000C94D400D0
:100060000C94D4000C942E050C94D4000C94D40061
:100070000C94D4000C94D4000C94D4000C94D400B0
:100080000C94D4000C94D4000C94D4000C94D400A0
:100090000C94D4000C94D4000C94D4000C94D40090
:1000A0000C94D4000C94D4000C94D4000C94D40080
:1000B0000C94D4000C94D4000C94D4000C94D40070
:1000C0000C94D4000C94D4000C94D4000C94D40060
:1000D0000C94D4000C94D4000C94D4000C94D40050
:1000E0000C94D40007634236B79BD8A71A396856D8
:1000F00018AEBAAB558C1D3CB7CC5763BD6DEDFD4A
:10010000753EF6177231BF000000803F0800000006
:10011000BE922449123EABAAAA2ABECDCCCC4C3EFC
:1001200000000080BEABAAAAAA3E00000000BF00EB
:100130000000803F0000000000084178D3BB4387E7
:10014000D1133D190E3CC3BD4282AD2B3E68EC82FB
:1001500076BED98FE1A93E4C80EFFFBE01C4FF7F80
:100160003F000000000011241FBECFEFD1E2DEBF30
:10017000CDBF00E00CBF15E0A0E0B2E0E2E3F5E2A5
:1001800000E00BBF02C007900D92A233B107D9F770
:100190001CE0A2E3B5E001C01D92A538B107E1F76C
:1001A0000E94FA0A0C9497120C94000086E69EE0D6
:1001B0000197F1F700004098419880E388B9429A8E
:1001C000EFEFF7E43197F1F700C000004298E6E660
:1001D000FEE03197F1F700004098419888B9429AC3
:1001E000EFEFF7E43197F1F700C000004298E6E640
:1001F000FEE03197F1F700004098419888B9429AA3
:100200008FEF97E40197F1F700C000004298E6E60F
:10021000FEE03197F1F700004098419880E288B9FC
:10022000429A8FEF97E40197F1F700C000004298DF
:10023000089598B19F7098B998B1282F207F922B7C
:1002400098B940984198429AEFEFF7E43197F1F767
:1002500000C00000429898B19F7098B998B18295FB
:10026000807F892B88B940984198429A8FEF97E414
:100270000197F1F700C00000429808950E94D6004F
:1002800086E69EE00197F1F7000088E20E941901DE
:1002900081E00E94190186E00E9419018EE00E940F
:1002A000190180E80E941901089598B19F7098B9CA
:1002B00098B1282F207F922B98B9409A4198429A62
:1002C000EFEFF7E43197F1F700C00000429898B1E2
:1002D0009F7098B998B18295807F892B88B9409A90
:1002E0004198429A8FEF97E40197F1F700C0000020
:1002F0004298089580E80E9419010895CF93DF93F2
:10030000EC018881882331F021960E945501899162
:100310008823D9F7DF91CF910895823079F0833027
:1003200018F48130C9F405C0833069F08430A1F439
:100330000FC0862F81580E9419010895862F81547D
:100340000E9419010895862F8D560E941901089563
:10035000862F8D520E94190108950F931F93CF93FA
:10036000DF938A01E901882311F0662319F40E94C2
:100370007A0102C00E948D01C530D10571F4C80117
:1003800060E177E20E947012CB01C09690937A0CE4
:100390008093790C0E94550103C0C430D105B9F493
:1003A000C80168EE73E00E947012CB017093840C58
:1003B0006093830C6AE070E00E947012C096909384
:1003C0007C0C80937B0C0E94550181E001C080E091
:1003D000C330D10511F08130B1F4C80164E670E09A
:1003E0000E947012CB017093840C6093830C6AE0BE
:1003F00070E00E947012C09690937E0C80937D0CEA
:100400000E94550181E0C230D10511F08130B1F474
:100410002AE030E0C801B9010E947012CB0170934C
:10042000840C6093830CB9010E947012C096909363
:10043000800C80937F0C0E94550181E0C130D10572
:1004400011F0813061F4C8016AE070E00E9470121E
:10045000C0969093820C8093810C0E945501C63007
:10046000D1051CF085E40E945501DF91CF911F91C9
:100470000F9108959C01E4EAF2E040E655E0DF01C7
:10048000808191818217930729F08281938182175D
:10049000930739F411961C921E9213961C921E9289
:1004A00012973496E417F50751F708952F923F926B
:1004B0004F925F926F927F928F929F92AF92BF9274
:1004C000CF92DF92EF92FF920F931F93CF93DF9320
:1004D000CDB7DEB728970FB6F894DEBF0FBECDBFFD
:1004E0001C014B0180913005909131059C01220F38
:1004F000331F220F331F820F931F81599A4F25E01C
:100500008F369207A1F098F0A3E7B5E0FD0134978C
:100510002FEF3FEF4FE057E261E0318320835383B9
:1005200042836C9335961596E817F907B0F3F401FA
:10053000EE0FFF1FEE0FFF1FE80DF91DE159FA4FF7
:10054000138212821482C0903005D0903105A4012C
:10055000662477240F2EF3E74F2EF5E05F2EF02D63
:10056000C20104979C838B834D825E8260E375E0B9
:100570000F2EF4EAAF2EF2E0BF2EF02DC114D104FD
:1005800009F46EC0F201EB80FC800D811E81D30165
:10059000CA01880F991F880F991F840F951F8159D1
:1005A0009A4F9C012E5F3F4F3A83298318870F8310
:1005B00087017F0138C0808191818417950729F4D4
:1005C000828193818A179B0739F03496E617F707E3
:1005D00091F738872F831BC038872F83F9018081DB
:1005E0008130A9F4E981FA81808191810196F80135
:1005F000228133818217930750F451834083E9812C
:10060000FA81808191810196F8019383828311960A
:100610002F8138852B5F3F4F38872F830B5F1F4F0C
:10062000AC15BD0520F4F5012F813885C4CFAFE0AE
:10063000B7E2A30193018701F8018081813041F481
:100640003297808191818A179B0710F4DC01A90100
:100650002F5F3F4F0B5F1F4F2C153D0569F701C002
:10066000A301CA01880F991F880F991F840F951F36
:1006700081599A4FDC0114961C9214974215530528
:1006800009F07CCF0F2EF9EECF2EFAE0DF2EF02D01
:10069000F601910140E050E00FE615E001C0AB012A
:1006A00021933193BA016F5F7F4FC901880F991F62
:1006B000880F991F820F931F800F911FDC012D91CE
:1006C0003C9111978216930651F7FB01EE0FFF1F25
:1006D000E751F54F91828082CA01029690935809A2
:1006E00080935709BFEF4F3F5B0779F0A9E5B9E069
:1006F000CA01880F991F8551954FF60121913191BB
:100700002D933D93E817F907C9F76090570970904A
:100710005809C301880F991F0F2EF7EE8F2EFAE0AC
:100720009F2EF02D880E991E76010F2EFAE0AF2E27
:10073000BB24F02D0F2EF5E44F2E5524F02D0F2E57
:10074000F7E52F2E3324F02D3BC0F70120813181B6
:100750000280F381E02DC901B5010E9484127A83E1
:100760006983CF01B5010E94841289819A8186171D
:100770009707A1F42E173F073CF4E3E5F0E0D7011B
:100780001196FC93EE9318C0E217F307ACF4EEE475
:10079000F0E0D7011196FC93EE930EC0E217F30739
:1007A0002CF4D70111963C922E9206C02E173F07CB
:1007B0001CF4F7015182408222E030E0E20EF31E89
:1007C000E814F90411F631E063167104E9F1F60159
:1007D00083E090E022E030E041E050E0DF01608122
:1007E0006E3419F41182108206C06081653419F4E8
:1007F0005183408307C06C91633521F411963C937B
:100800002E9306C06C91673519F411969C938E93C4
:100810003296E815F90511F7F60180E090E06AE5F7
:1008200070E001C0CA0140815181DA01A81BB90BF7
:10083000A69F9001A79F300DB69F300D11242193E4
:100840003193E815F90571F740915709509158090E
:1008500041305105C1F14150504020E030E063E0AB
:1008600070E0AA24BB24A39488249924689481F876
:1008700004E010E07A01A9019601F90180819181DB
:100880008A35910521F0BEEF823F9B0719F47183F1
:10089000608312C0A1E08E309A0721F0BFEF863A44
:1008A0009B0719F4B182A08207C0009719F4118345
:1008B000008302C0918280824F5F5F4F2E5F3F4F67
:1008C0004E155F05D0F228960FB6F894DEBF0FBE26
:1008D000CDBFDF91CF911F910F91FF90EF90DF90EF
:1008E000CF90BF90AF909F908F907F906F905F90D0
:1008F0004F903F902F9008955E985F9808955E9A6C
:100900005F9A08955E985F9A08955E9A5F98089539
:100910005C9A5D9A08950E9488040E947C0410925B
:1009200065051092660510926705109268058FEFB5
:100930009FE7A4E081509040A040E1F700C0000094
:100940008091650590916605A0916705B091680555
:100950008093610590936205A0936305B09364054D
:100960000E947F041092650510926605109267053B
:10097000109268058FEF9FE7A4E081509040A0405F
:10098000E1F700C000008091650590916605A09197
:100990006705B09168058093590590935A05A09317
:1009A0005B05B0935C050E9482041092650510926D
:1009B000660510926705109268058FEF9FE7A4E027
:1009C00081509040A040E1F700C000008091650593
:1009D00090916605A0916705B091680580935D05CB
:1009E00090935E05A0935F05B0936005409161050B
:1009F00050916205609163057091640580915D0579
:100A000090915E05A0915F05B091600584179507F0
:100A1000A607B707E0F44091610550916205609127
:100A20006305709164058091590590915A05A091D4
:100A30005B05B0915C0584179507A607B70738F4E6
:100A40008CE590E090936E0580936D0508958DE59B
:100A500090E090936E0580936D0508951F920F921C
:100A60000FB60F9211248F938091C60080936B056F
:100A700010926C058F910F900FBE0F901F901895DC
:100A8000E1ECF0E010821092C00086E08093C2009A
:100A90008FE58093C4001092C50088E98083089593
:100AA000269A2E9A0895E1EDF0E010821092D0007F
:100AB00086E08093D2008FE58093D4001092D50019
:100AC00088E98083089580EE8093010110920201ED
:100AD000089580E88093020108951092020108951C
:100AE00080E280930201089580E4809302010895DA
:100AF00081B18F6081B982B1807F82B9EAE0F1E093
:100B0000808188618083EBE0F1E08081886180836F
:100B1000089587B1876F87B988B1807888B90895BB
:100B200010BA11BA109207011092080108956C983A
:100B3000749A08956D98759A08953B9A439808950C
:100B40008AB18E6F8AB9589A0895F894E9E6F0E070
:100B5000808182608083E89A789408951F920F9232
:100B60000FB60F9211248F939F93AF93BF938091F1
:100B7000650590916605A0916705B091680501969D
:100B8000A11DB11D8093650590936605A09367052F
:100B9000B0936805BF91AF919F918F910F900FBE59
:100BA0000F901F901895259A2D9A08950E94D305AD
:100BB0000E9450050E9478050E9497050E949A05A0
:100BC0000E9489050E9490050E949D050E94630570
:100BD0000E94A0050895E1E2F1E010828FEF80937A
:100BE000250191E09093240110922901809328011E
:100BF00010922B0180932A0110922D0180932C01D9
:100C000089EA809320018BE080830895EAE7F0E091
:100C1000108210927B0080E280937C0080E880BF8D
:100C200086E880830895883018F098E090937B00E0
:100C30008770806280937C00EAE7F0E080818064C6
:100C40008083808184FFFDCF80917900EAE7F0E026
:100C500090819061908310927B000895CF93DF93F1
:100C6000D82FC62F842F0E941306482F80934B0540
:100C70008D2F6C2F50E023E030E00E94AD01DF911A
:100C8000CF910895F894EAE6F0E080818260808355
:100C9000EC9A78940895F894EAE6F0E08081886010
:100CA0008083ED9A789408951F920F920FB60F9259
:100CB00011248F939F93AF93BF938091510590918F
:100CC0005205A0915305B09154050196A11DB11D87
:100CD0008093510590935205A0935305B09354050A
:100CE000BF91AF919F918F910F900FBE0F901F906A
:100CF00018951F920F920FB60F9211248F939F9306
:100D0000AF93BF938091550590915605A0915705DB
:100D1000B09158050196A11DB11D80935505909382
:100D20005605A0935705B0935805BF91AF919F9179
:100D30008F910F900FBE0F901F90189580932801F0
:100D400060932A01089592B1907F8F70982B92B989
:100D5000089586B1886088B9089586B1877F88B97B
:100D6000089586E00E94A306089589E00E94A306E4
:100D7000089585E00E94A30608958AE00E94A306D4
:100D8000089584E00E94A306089582E00E94A306CD
:100D9000089581E00E94A306089588E00E94A306BA
:100DA000089580E00E94A30608950F931F93682F73
:100DB00070E080E090E00E941A102FEE39EC43E9D9
:100DC0005FE30E940B11B62FA72F382F292F60E069
:100DD00070E080E89FE3422F0B2F1A2F232F342F30
:100DE000A90198010E94810F2AE939EF4EE255E4EA
:100DF0000E94A81020E030E040E251E40E94A810D8
:100E00000E94E90F882777FD8095982F0E941C107B
:100E10000E94E90F862F972F23E08132920710F06E
:100E200080E293E01F910F9108950F931F93CF934A
:100E3000BC0180E090E00E941A1028E431EE42E804
:100E400050E40E94810F0E94EE0FDC01CB01A0E074
:100E5000B0E0109251051092520510925305109275
:100E60005405109255051092560510925705109290
:100E70005805F1E0C0E04091510550915205609154
:100E80005305709154050091550510915605209118
:100E9000570530915805EF2F481759076A077B0708
:100EA00008F4EC2FEE2349F44F2F081719072A07EF
:100EB0003B0708F44C2F4423F1F20E94D106CF9156
:100EC0001F910F910895BC0180E090E00E941A10DC
:100ED00025EE30ED4AEA50E40E94810F0E94EE0FA9
:100EE000462F572F682F792F1092510510925205D7
:100EF000109253051092540580915105909152051E
:100F0000A0915305B0915405481759076A077B070C
:100F100098F70E94D1060895CF93DF93EC010E94C9
:100F2000B106CE010E946307DF91CF910895CF9360
:100F3000DF93EC010E94B506CE010E946307DF91AA
:100F4000CF910895CF93DF93EC010E94B906CE01B3
:100F50000E941507DF91CF910895CF93DF93EC01A5
:100F60000E94BD06CE010E941507DF91CF91089522
:100F7000CF93DF93EC010E94C106CE01880F991F29
:100F80000E941507DF91CF910895CF93DF93EC0175
:100F90000E94C506CE01880F991F0E941507DF9198
:100FA000CF910895CF93DF93EC010E94C906CE0143
:100FB000880F991F0E941507DF91CF910895CF9355
:100FC000DF93EC010E94CD06CE01880F991F0E948D
:100FD0001507DF91CF91089510928B00682F70E074
:100FE00080E090E00E941A102BE734E14EEE5FE3C0
:100FF0000E94810F20E030E04CE052E40E941D0F7F
:101000000E94EE0F60938A00089582E00E9413060A
:10101000809333050E94B90684EB64EB0E949E0620
:1010200080913305863188F30895E1E8F0E010827D
:101030008CEF8093850081E08093840093E090930F
:1010400089008FEF8093880090938B0080938A00B3
:1010500090938D0080938C009093870080938600FE
:101060008BEA80938000109282008CE08083089548
:1010700010928900682F70E080E090E00E941A10C2
:101080002BE734E14EEE5FE30E94810F20E030E079
:101090004CE052E40E941D0F0E94EE0F6093880006
:1010A00008958AE50E943808089580E00E94EC07C0
:1010B000089583E0809389008FEF809388000895DE
:1010C000CF930E94D10688E20E943808C8E28C2F94
:1010D0000E9438088FEF9FE3A2E081509040A0402B
:1010E000E1F700C00000CF5FC03689F78091370577
:1010F00090913805009721F485E50E94380803C0D7
:101100008AE50E9438088FEF9FE7A4E08150904065
:10111000A040E1F700C000000E948B0480913705D9
:1011200090913805009749F480916D0590916E0576
:1011300090933E0580933D0508C080916D05909188
:101140006E0590933C0580933B0580916D059091D1
:101150006E058C35910519F40E94690505C08D3521
:10116000910511F40E9474058FEF9FEFA9E581505E
:101170009040A040E1F700C000000E946D050E9471
:1011800051088FEF9FEFA9E581509040A040E1F713
:1011900000C00000CF910895CF92DF92EF92FF92AE
:1011A000CF93DF93BC0180E090E00E941A1028E406
:1011B00031EE42E850E40E94810F0E94EE0F6B0175
:1011C000EE24FF24109251051092520510925305FF
:1011D000109254051092550510925605109257051D
:1011E00010925805C1E0D0E08BE00E941306809376
:1011F0004E050E94D50690934D0580934C058B5566
:1012000090408B33910568F40E94D10686E690E009
:1012100090933805809337050E9460080E94D1069C
:1012200045C00E94B90688EC68EC0E949E06809139
:10123000510590915205A0915305B09154054091EC
:1012400055055091560560915705709158052C2F02
:101250008C159D05AE05BF0508F42D2F222351F4F2
:101260008C2F4C155D056E057F0508F48D2F8823A6
:1012700009F4BACF0E94D1060E9470050E94A90607
:101280008FEF9FEFA9E581509040A040E1F700C0AB
:1012900000000E94AD060E946D0580916905909145
:1012A0006A05019690936A05809369050E94D106AC
:1012B000DF91CF91FF90EF90DF90CF900895CF9284
:1012C000DF92EF92FF92CF93DF93BC0180E090E03A
:1012D0000E941A1028E431EE42E850E40E94810F87
:1012E0000E94EE0F6B01EE24FF2410925105109224
:1012F0005205109253051092540510925505109204
:1013000056051092570510925805C1E0D0E08BE0C9
:101310000E94130680934E050E94D50690934D05BA
:1013200080934C058B5590408D31910558F485E69E
:1013300090E090933A05809339050E9460080E94DE
:10134000D1064EC00E94BD0688EC68EC0E949E0645
:101350008091510590915205A0915305B09154058B
:10136000409155055091560560915705709158056B
:101370002C2F8C159D05AE05BF0508F42D2F2223BB
:1013800051F48C2F4C155D056E057F0508F48D2FEB
:10139000882309F4BCCF0E94D1068FEF9FEFACE207
:1013A00081509040A040E1F700C000000E9470050D
:1013B0000E94A9068FEF9FEFA9E581509040A040C1
:1013C000E1F700C000000E94AD060E946D0580910B
:1013D000690590916A05019690936A058093690565
:1013E0000E94D106DF91CF91FF90EF90DF90CF90D8
:1013F000089582E00E941306809333050E94BD0683
:1014000084EB64EB0E949E0680913305863188F35D
:10141000089584EB64EB0E949E068FE090E00E94AA
:10142000AD070E94050884EB64EB0E949E068FE0E6
:1014300090E00E94A2070E94F9090895809180021D
:101440009091810281309105E1F08230910561F047
:10145000E2E8F2E021E030E0819191918130910564
:1014600091F08230910529F40E94D10681E390E049
:1014700008952F5F3F4F2131310571F720E030E0B3
:1014800002C020E030E0F901EE0FFF1FEE0FFF1F5A
:10149000EE0FFF1FE050FE4F80819181009781F594
:1014A000F901EE0FFF1FEE0FFF1FEE0FFF1FE050C1
:1014B000FE4F82819381009719F5F901EE0FFF1F0E
:1014C000EE0FFF1FEE0FFF1FE050FE4F848195814E
:1014D0000097B1F4F901EE0FFF1FEE0FFF1FEE0FA3
:1014E000FF1FE050FE4F86819781009749F4F90174
:1014F000EE0FFF1FE058FD4F1182108280E090E058
:101500000895CF93DF9324E030E0B9010E94841264
:10151000E901C81BD90B8091E90A9091EA0A8C0F66
:101520009D1F9C01237030702115310569F164E025
:1015300070E00E9484128230910591F487E890E077
:101540000E94AD070E94F9098FEF9FE7A4E0815048
:101550009040A040E1F700C000000E94090A14C0BA
:101560008330910589F48DE290E00E94AD070E94DE
:10157000F9098FEF9FE7A4E081509040A040E1F788
:1015800000C000000E94090A8091E90A9091EA0ACD
:101590008C0F9D1F64E070E00E94841281309105E1
:1015A00089F48DE290E00E94A2070E9405088FEF67
:1015B0009FE7A4E081509040A040E1F700C0000008
:1015C0000E94090ADF91CF910895F8940E94D605F0
:1015D0000E9406060E94EB050E9415080E94A505C0
:1015E0000E9440050E9453050E9442060E944B063D
:1015F000789408952F923F924F925F926F927F92CC
:101600008F929F92AF92BF92CF92DF92EF92FF9212
:101610000F931F93CF93DF9300D00F92CDB7DEB718
:101620000E94E50A0E94D6000E943E010E945108D5
:101630000E94550882E090E00E943A028AEF90E012
:1016400090936E0580936D058AEF8093C60084E0C9
:1016500090E09093440580934305109246051092C4
:1016600045058824992401E310E01A8219820F2E7F
:10167000F9EEAF2EFAE0BF2EF02D0F2EF9E5EF2E8A
:10168000F9E0FF2EF02D0F2EFDE62F2EF5E03F2E78
:10169000F02D8114910429F410924A051092490505
:1016A00006C081E090E090934A05809349050E942E
:1016B0001E0A6C0182E061E0A80122E030E00E9495
:1016C000AD01DC82CB8282E065E0A60122E030E061
:1016D0000E94AD01C801B6010E94560280914505E5
:1016E000909146050E94810AD5018D919C91119798
:1016F000909346058093450504E010E0442455246A
:10170000689441F866247724639480916B059091E6
:101710006C059C01215030402A35310510F40E949F
:101720003A0283E00E9413068093340582E00E940F
:1017300013068093330581E00E94130680933205DF
:101740008BE00E94130680934E050E94D50690936D
:101750004D0580934C05815590408534910508F0E6
:10176000BAC00E94D1062091490530914A05809166
:1017700057099091580901978217930709F060C0A3
:1017800013C080819181A817B90711F411821082CA
:101790002150304032962115310599F74F5F5F4F48
:1017A0004031510539F411C040E050E064E070E090
:1017B000AB81BC81FA01EE0FFF1FEE0FFF1FEE0F92
:1017C000FF1FE050FE4F9B01DCCFC6010E943A0292
:1017D0008EE690E090936E0580936D0581E061E068
:1017E0004EE650E023E030E00E94AD01D1018C9143
:1017F00006EC10E0F80180838FEF9FE7A4E08150B2
:101800009040A040E1F700C00000D0926E05C09269
:101810006D0581E061E0A60123E030E00E94AD01AA
:10182000D1018C91F8018083E0914905F0914A053E
:101830003197EE0FFF1FEE0DFF1D00811181DBC2FE
:10184000F901EE0FFF1FEE0DFF1D808191810E94B7
:101850003A028EE690E090936E0580936D0581E0EC
:1018600061E04EE650E023E030E00E94AD01D1019E
:101870008C9106EC10E0F80180838FEF9FE7A4E0E5
:1018800081509040A040E1F700C0000080914905E0
:1018900090914A05880F991F8E0D9F1DDC014D9177
:1018A0005C9150936E0540936D0581E061E023E00B
:1018B00030E00E94AD01F1018081D8018C93E0916C
:1018C0004905F0914A053197EE0FFF1FEE0DFF1D00
:1018D0000081118190C2809133058531F0F590919E
:1018E00034059531D0F5909132059531B0F5809160
:1018F0004305909144058130910531F40E94B10671
:101900008AEF6AEF0E949E068091430590914405FC
:101910008230910531F40E94B1068AEA6AEF0E9492
:101920009E0680914305909144058330910531F4E2
:101930000E94B1068AEF6AEA0E949E0680914305E2
:10194000909144058430910509F0DFCE0E94B106E4
:101950008AEF6AEF0E949E06D8CE863198F0909169
:101960003405953178F490913205953158F40E9400
:10197000B1068AEF6AEF0E949E067092440560925B
:101980004305C3CE853130F590913405963178F01A
:1019900020913205253158F4509244054092430578
:1019A0000E94B1068AEA6AEF0E949E06AECE953189
:1019B00088F490913205963168F083E090E090933E
:1019C0004405809343050E94B1068AEF6AEA0E94AB
:1019D0009E069BCE863108F498CE809134058631E0
:1019E00020F090913205953141F4853108F08DCE8B
:1019F00080913205863108F488CE10934405009317
:101A000043058091490590914A05880F991F8E0DD5
:101A10009F1DFC014081518182E069E023E030E0BC
:101A20000E94AD012091490530914A05C901880FF6
:101A3000991F8A0D9B1DDC018D919C91119781301E
:101A40009105B1F4809145059091460501969093DA
:101A50004605809345058BE490E00E948C078DE25B
:101A600090E00E94A2070E9405080E94D106B9C119
:101A70008430910571F48091450590914605049656
:101A800090934605809345058DE290E00E948C0777
:101A9000A8C183309105B1F4809145059091460528
:101AA000039690934605809345058BE490E00E9451
:101AB0008C078DE290E00E94AD070E94F9090E9418
:101AC000D1068FC182309105A1F480914505909196
:101AD0004605029690934605809345058BE490E079
:101AE0000E948C0782E890E00E94AD070E94F909ED
:101AF00078C18091570990915809019728173907A3
:101B000009F06FC1EB81FC8128E032E0A0E8B2E08F
:101B100040E050E0BF0113C08191919168177907AF
:101B200019F411961C921E92E217F307A9F74F5F62
:101B30005F4F285F3F4F12964031510551F0FA0137
:101B4000EE0FFF1FEE0FFF1FEE0FFF1FE050FE4FC7
:101B5000E3CF0E94D1068BE490E00E948C07F2E074
:101B60008F1691040CF4C1C08091690590916A05AB
:101B70008230910509F4B9C086E990E090936E0532
:101B800080936D0581E061E046E950E023E030E0BC
:101B90000E94AD01D1018C91E6ECF0E080838FEFE3
:101BA0009FEFACE281509040A040E1F700C0000000
:101BB000A1E4B5E08C9180838FEF9FE7A4E0815092
:101BC0009040A040E1F700C00000AFE3B5E08C9189
:101BD00080838FEF9FE7A4E081509040A040E1F721
:101BE00000C00000A9E3B5E08C9180838FEF9FE7F0
:101BF000A4E081509040A040E1F700C00000ADE3B8
:101C0000B5E08C9180838FEF9FE7A4E081509040F6
:101C1000A040E1F700C00000A7E3B5E08C9180830D
:101C20008FEF9FE7A4E081509040A040E1F700C013
:101C3000000080913B0580838FEF9FE7A4E08150F7
:101C40009040A040E1F700C00000C0828FEF9FE706
:101C5000A4E081509040A040E1F700C0000088EC73
:101C600090E090936E0580936D0588EC80838FEFF4
:101C70009FEFACE281509040A040E1F700C000002F
:101C800080916B0590916C05883C9105E1F009818C
:101C90001A810E94D106AFEFBFE81197F1F700C09B
:101CA000000081E061E0A80123E030E00E94AD0186
:101CB0000F5F1F4F80916B0590916C05883C9105DB
:101CC00041F71A8309838AEF90E090936E05809321
:101CD0006D058AEF8093C6008FEF9FE7A4E08150E7
:101CE0009040A040E1F700C0000091E3C916D10484
:101CF000B9F40E94D10685E990E090936E05809337
:101D00006D0585E98093C6008FEF9FEFA6E7B1E0F0
:101D100081509040A040B040D9F700C0000073C08F
:101D200010926A05109269051092360510923505D9
:101D3000109238051092370510923A051092390525
:101D400010923C0510923B0510923E0510923D0505
:101D50008091490590914A050197880F991F8E0D32
:101D60009F1DDC018D919C919093420580934105CC
:101D7000D0924005C0923F0580E00E9438088AE575
:101D80000E94EC078EE690E00E945F090E94D10657
:101D900080E00E94380882E390E00E94A2070E943F
:101DA000D10684EB90E00E94CC080E94D10680E02E
:101DB0000E9438088EE190E00E94AD070E9455080D
:101DC0008FEF9FEFACE281509040A040E1F700C060
:101DD00000000E9451080E94F9090E94D106860164
:101DE0000AC08091490590914A05019690934A0551
:101DF000809349058ACC0894811C911C94E689162D
:101E0000910409F046CC80E090E00F900F900F9085
:101E10000F90DF91CF911F910F91FF90EF90DF9086
:101E2000CF90BF90AF909F908F907F906F905F907A
:101E30004F903F902F9008955058BB27AA270ED05F
:101E40004DC13ED130F043D120F031F49F3F11F429
:101E50001EF433C10EF4E095E7FB29C1E92F4FD101
:101E600080F3BA17620773078407950718F071F4B7
:101E70009EF567C10EF4E0950B2EBA2FA02D0B0135
:101E8000B90190010C01CA01A0011124FF27591BBF
:101E900099F0593F50F4503E68F11A16F040A22FC5
:101EA000232F342F4427585FF3CF46953795279536
:101EB000A795F0405395C9F77EF41F16BA0B620B35
:101EC000730B840BBAF09150A1F0FF0FBB1F661F7C
:101ED000771F881FC2F70EC0BA0F621F731F841FBF
:101EE00048F4879577956795B795F7959E3F08F0E5
:101EF000B3CF9395880F08F09927EE0F97958795A4
:101F000008950CD0EBC0E3D040F0DAD030F021F4EB
:101F10005F3F19F0CCC0511115C1CFC0F0D098F37C
:101F20009923C9F35523B1F3951B550BBB27AA275A
:101F300062177307840738F09F5F5F4F220F331FCC
:101F4000441FAA1FA9F333D00E2E3AF0E0E830D098
:101F500091505040E695001CCAF729D0FE2F27D09B
:101F6000660F771F881FBB1F261737074807AB0769
:101F7000B0E809F0BB0B802DBF01FF2793585F4FDE
:101F80002AF09E3F510568F092C0DCC05F3FECF341
:101F9000983EDCF3869577956795B795F7959F5FA3
:101FA000C9F7880F911D9695879597F90895E1E0F7
:101FB000660F771F881FBB1F621773078407BA0756
:101FC00020F0621B730B840BBA0BEE1F88F7E095B1
:101FD000089504D06894B111B5C0089598D088F0E0
:101FE0009F5790F0B92F9927B751A0F0D1F0660F05
:101FF000771F881F991F1AF0BA95C9F712C0B13020
:1020000081F09FD0B1E008959CC0672F782F88277A
:10201000B85F39F0B93FCCF3869577956795B3955E
:10202000D9F73EF490958095709561957F4F8F4FCD
:102030009F4F0895E89409C097FB3EF490958095D2
:10204000709561957F4F8F4F9F4F9923A9F0F92F7E
:1020500096E9BB279395F695879577956795B795FC
:10206000F111F8CFFAF4BB0F11F460FF1BC06F5FE2
:102070007F4F8F4F9F4F16C0882311F096E911C0F4
:10208000772321F09EE8872F762F05C0662371F015
:1020900096E8862F70E060E02AF09A95660F771F29
:1020A000881FDAF7880F9695879597F9089597F91D
:1020B0009F6780E870E060E008959FEF80EC0895EE
:1020C00000240A9416161706180609060895002417
:1020D0000A9412161306140605060895092E039491
:1020E000000C11F4882352F0BB0F40F4BF2B11F405
:1020F00060FF04C06F5F7F4F8F4F9F4F089557FD64
:102100009058440F551F59F05F3F71F04795880F65
:1021100097FB991F61F09F3F79F0879508951216FC
:1021200013061406551FF2CF4695F1DF08C01616A8
:1021300017061806991FF1CF869571056105089459
:102140000895E894BB2766277727CB0197F9089570
:102150000BD0C4CFB5DF28F0BADF18F0952309F013
:10216000A6CFABCF1124EECFCADFA0F3959FD1F35A
:10217000950F50E0551F629FF001729FBB27F00D35
:10218000B11D639FAA27F00DB11DAA1F649F66278A
:10219000B00DA11D661F829F2227B00DA11D621FD9
:1021A000739FB00DA11D621F839FA00D611D221F93
:1021B000749F3327A00D611D231F849F600D211D77
:1021C000822F762F6A2F11249F5750408AF0E1F01A
:1021D00088234AF0EE0FFF1FBB1F661F771F881F63
:1021E00091505040A9F79E3F510570F060CFAACFA3
:1021F0005F3FECF3983EDCF3869577956795B7954E
:10220000F795E7959F5FC1F7FE2B880F911D969577
:10221000879597F90895FA01EE0FFF1F3096210573
:10222000310599F16115710561F48038BFE39B07B1
:1022300049F168949038810561F08038BFEF9B07C1
:1022400041F0992342F5FF3FE1053105210511F1E8
:10225000E8940894E795D901AA2329F4AB2FBE2F5F
:10226000F85FD0F310C0FF5F70F4A695E0F7F73980
:1022700050F019F0FF3A38F49F779F930CD00F90ED
:1022800007FC905808953EF018CF60E070E080E8B9
:102290009FE308954FE79F775F934F933F932F936B
:1022A0009ED02F913F914F915F9152DF05C019F45D
:1022B0000EF0FDCE46CF01CF2ADFC8F39638C0F727
:1022C00007F80F92E8942BE33AEA48EB5FE74EDF1A
:1022D0000F920F920F924DB75EB70F92C0D0E4EEFF
:1022E000F0E016D04F915F91EF91FF91E595EE1FD1
:1022F000FF1F49F0FE57E0684427EE0F441FFA9590
:10230000E1F74195550B32D00F9007FE26C0089596
:10231000DF93CF931F930F93FF92EF92DF927B0196
:102320008C01689405C0DA2EEF011EDFFE01E894EF
:10233000A5912591359145915591AEF3EF018EDD33
:10234000FE019701A801DA9479F7DF90EF90FF90F2
:102350000F911F91CF91DF9108959B01AC0160E037
:1023600070E080E89FE3CDCDA2CEACC0D0DEE8F334
:102370009923D9F3940F511DBBF39150504094F021
:1023800059F0882332F0660F771F881F9150504014
:10239000C1F79E3F510544F7880F911D969587958B
:1023A00097F908955F3FACF0983E9CF0BB27869567
:1023B00077956795B79508F4B1609395C1F7BB0F12
:1023C00058F711F460FFE8CF6F5F7F4F8F4F9F4F3B
:1023D000E3CFB8CE0EF076C070CE689468CE97DEAC
:1023E000C8F39923D1F3C6F3DF93CF931F930F93D1
:1023F000FF92C92FDD2788232AF02197660F771FC8
:10240000881FDAF720E030E040E85FEB9FE388398F
:1024100020F0803E30F021968F770FDDECE0F1E088
:1024200003C00BDDE9E3F1E073DF8B01BE01EC01DA
:10243000FB2E6F5771097595771F880B990BFCDD83
:1024400028E132E741E35FE38FDEAF2D9801AE0173
:10245000FF900F911F91CF91DF9100DD3FCEFA01E8
:10246000DC01AA0FBB1F9B01AC01BF5728F4222738
:102470003327442750781FC0B75188F4AB2F00246E
:10248000469537952795011CA395D2F3002069F056
:10249000220F331F441FB395DAF30DD0CDCC61303A
:1024A0007105A0E88A07B94630F49B01AC016627A4
:1024B000772788279078309621F0208331834283D4
:1024C000538308959F3F31F0915020F4879577957D
:1024D0006795B795880F911D9695879597F90895FB
:1024E000AA1BBB1B51E107C0AA1FBB1FA617B7073A
:1024F00010F0A61BB70B881F991F5A95A9F7809556
:102500009095BC01CD01089597FB092E07260AD0AE
:1025100077FD04D0E5DF06D000201AF470956195B0
:102520007F4F0895F6F7909581959F4F0895F89401
:02253000FFCFDB
:1025320044004D004F005800440039002F003B007A
:1025420042004B004D0056004200370039002D007A
:1025520040004B00490054004000370035002B007A
:102562003E002900330035003E004700490052007A
:1025720016001F002900210016000B000D000200AA
:102582001800210023002B0018000D000F0004008A
:102592001A0011000F0006001A00250023002D006A
:1025A2001C00250027002F001C001100130008004A
:1025B2000100010001000100010001000100010011
:1025C2000100010001000100010001000100010001
:1025D2000200C4090100020001000B000200010018
:1025E20002000300030002000300040003000D00C8
:1025F20004000300040005000500040005000600B5
:1026020005000F000600050006000700070006008F
:102612000700080007001100080007000800090071
:1026220009000800090013000B0001000B0015004F
:102632000D0003000D0017000F0005000F00190028
:102642001100070011001B001300090013001D00F8
:1026520015000B001500160015001F0016001500CE
:1026620016001700170016001700180017000D00BB
:10267200170021001800170018001900190018008F
:1026820019001A0019000F00190023001A0019007E
:102692001A001B001B001A001B001C001B0011006B
:1026A2001B0025001C001B001C001D001D001C003F
:1026B2001D0013001D0027001F0015001F00280029
:1026C20021002A00210017002300190023002C00FA
:1026D20025001B0025002E0027001D0027003000CA
:1026E20028001F00280029002800330029002800A4
:1026F20029002A002A0029002A002B002A00210092
:102702002A0035002B002A002B002C002C002B0065
:102712002C002D002C0023002C0037002D002C0053
:102722002D002E002E002D002E002F002E00250041
:102732002E0039002F002E002F00300030002F0015
:102742003000270030003B00300031003100300003
:102752003300280033003D0035002A0035003F00D9
:102762003700410037002C003900430039002E00A9
:102772003B0045003B0030003D0033003D003E0081
:102782003D0047003E003D003E003F003F003E004E
:102792003F0040003F0035003F00490040003F003D
:1027A200400041004100400041004200410037002A
:1027B20041004B00420041004200430043004200FE
:1027C200430044004300390043004D0044004300ED
:1027D200440045004500440045003B0045004F00D1
:1027E20047003D00470051004900530049003F00A7
:1027F2004B0041004B0055004D0043004D00570077
:102802004F0045004F00590051004700510052004F
:102812005200510052005300530052005300540022
:102822005300490054005300540055005500540011
:102832005500560055004B005600550056005700F3
:10284200570056005700580057004D0058005700D7
:10285200580059005900580059004F00000000006C
:02286200C800AC
:00000001FF
