:100000000C94B3000C9421050C94D4000C94D400EF
:100010000C94D4000C9407060C94E2050C94D400C4
:100020000C94D4000C94D4000C94D4000C94D40000
:100030000C94D4000C94D4000C94D4000C94D400F0
:100040000C94D4000C94D4000C94D4000C94D400E0
:100050000C94D4000C94D4000C94D4000C94D400D0
:100060000C94D4000C94D4000C94D4000C94D400C0
:100070000C94D4000C94D4000C94D4000C94D400B0
:100080000C94D4000C94D4000C94D4000C94D400A0
:100090000C94D4000C94D4000C94D4000C94D40090
:1000A0000C94D4000C94D4000C94D4000C94D40080
:1000B0000C94D4000C94D4000C94D4000C94D40070
:1000C0000C94D4000C94D4000C94D4000C94D40060
:1000D0000C94D4000C94D4000C94D4000C94D40050
:1000E0000C94D40007634236B79BD8A71A396856D8
:1000F00018AEBAAB558C1D3CB7CC5763BD6DEDFD4A
:10010000753EF6177231BF000000803F0800000006
:10011000BE922449123EABAAAA2ABECDCCCC4C3EFC
:1001200000000080BEABAAAAAA3E00000000BF00EB
:100130000000803F0000000000084178D3BB4387E7
:10014000D1133D190E3CC3BD4282AD2B3E68EC82FB
:1001500076BED98FE1A93E4C80EFFFBE01C4FF7F80
:100160003F000000000011241FBECFEFD1E2DEBF30
:10017000CDBF00E00CBF15E0A0E0B2E0E2E2FFE19D
:1001800000E00BBF02C007900D92A432B107D9F76F
:1001900018E0A4E2B5E001C01D92A236B107E1F774
:1001A0000E947D0B0C948F0F0C94000086E69EE05D
:1001B0000197F1F700004098419880E388B9429A8E
:1001C000EFEFF7E43197F1F700C000004298E6E660
:1001D000FEE03197F1F700004098419888B9429AC3
:1001E000EFEFF7E43197F1F700C000004298E6E640
:1001F000FEE03197F1F700004098419888B9429AA3
:100200008FEF97E40197F1F700C000004298E6E60F
:10021000FEE03197F1F700004098419880E288B9FC
:10022000429A8FEF97E40197F1F700C000004298DF
:10023000089598B19F7098B998B1282F207F922B7C
:1002400098B940984198429AEFEFF7E43197F1F767
:1002500000C00000429898B19F7098B998B18295FB
:10026000807F892B88B940984198429A8FEF97E414
:100270000197F1F700C00000429808950E94D6004F
:1002800086E69EE00197F1F7000088E20E941901DE
:1002900081E00E94190186E00E9419018EE00E940F
:1002A000190180E80E941901089598B19F7098B9CA
:1002B00098B1282F207F922B98B9409A4198429A62
:1002C000EFEFF7E43197F1F700C00000429898B1E2
:1002D0009F7098B998B18295807F892B88B9409A90
:1002E0004198429A8FEF97E40197F1F700C0000020
:1002F0004298089580E80E9419010895CF93DF93F2
:10030000EC018881882331F021960E945501899162
:100310008823D9F7DF91CF910895823079F0833027
:1003200018F48130C9F405C0833069F08430A1F439
:100330000FC0862F81580E9419010895862F81547D
:100340000E9419010895862F8D560E941901089563
:10035000862F8D520E94190108950F931F93CF93FA
:10036000DF938A01E901882311F0662319F40E94C2
:100370007A0102C00E948D01C530D10571F4C80117
:1003800060E177E20E94680FCB01C0969093470826
:10039000809346080E94550103C0C430D105B9F4CA
:1003A000C80168EE73E00E94680FCB01709351089A
:1003B000609350086AE070E00E94680FC0969093C6
:1003C0004908809348080E94550181E001C080E0FF
:1003D000C330D10511F08130B1F4C80164E670E09A
:1003E0000E94680FCB0170935108609350086AE037
:1003F00070E00E94680FC09690934B0880934A0863
:100400000E94550181E0C230D10511F08130B1F474
:100410002AE030E0C801B9010E94680FCB01709357
:10042000510860935008B9010E94680FC0969093DC
:100430004D0880934C080E94550181E0C130D105E0
:1004400011F0813061F4C8016AE070E00E94680F29
:10045000C09690934F0880934E080E945501C63075
:10046000D1051CF085E40E945501DF91CF911F91C9
:100470000F9108952F923F924F925F926F927F92C9
:100480008F929F92AF92BF92CF92DF92EF92FF92A4
:100490000F931F93CF93DF93CDB7DEB728970FB697
:1004A000F894DEBF0FBECDBF1C014B018091F30459
:1004B0009091F4049C01220F331F220F331F820FEF
:1004C000931F8E5B9A4F25E082349207A1F098F03B
:1004D000A6E4B5E0FD0134972FEF3FEF4FE057E280
:1004E00061E031832083538342836C933596159664
:1004F000E817F907B0F3F401EE0FFF1FEE0FFF1F2F
:10050000E80DF91DEE5BFA4F138212821482C0903F
:10051000F304D090F404A401662477240F2EF6E4AB
:100520004F2EF5E05F2EF02DC20104979C838B8344
:100530004D825E826FEE74E00F2EF7E3AF2EF2E095
:10054000BF2EF02DC114D10409F46EC0F201EB806E
:10055000FC800D811E81D301CA01880F991F880F6D
:10056000991F840F951F8E5B9A4F9C012E5F3F4F02
:100570003A83298318870F8387017F0138C08081E0
:1005800091818417950729F4828193818A179B07AB
:1005900039F03496E617F70791F738872F831BC099
:1005A00038872F83F90180818130A9F4E981FA81AC
:1005B000808191810196F80122813381821793070E
:1005C00050F451834083E981FA81808191810196C1
:1005D000F8019383828311962F8138852B5F3F4FDB
:1005E00038872F830B5F1F4FAC15BD0520F4F50135
:1005F0002F813885C4CFAFE0B7E2A3019301870113
:10060000F8018081813041F43297808191818A178D
:100610009B0710F4DC01A9012F5F3F4F0B5F1F4FB9
:10062000C216D30669F701C0A301CA01880F991F3A
:10063000880F991F840F951F8E5B9A4FDC011496CB
:100640001C9214974215530509F07CCF0F2EFAE641
:10065000CF2EF7E0DF2EF02DF601910166247724EE
:1006600062E475E001C03A0121933193A3014F5F29
:100670005F4FC901880F991F880F991F820F931F21
:10068000860F971FDC012D913C91119782169306DE
:1006900051F78AE697E0FA01EE0FFF1FE80FF91F06
:1006A0009182808293012E5F3F4F309369072093A0
:1006B000680702974901880C991C880E991E7601DB
:1006C0000F2EFAE0AF2EBB24F02D0F2EF5E44F2EA7
:1006D0005524F02D0F2EF7E52F2E3324F02D3BC09F
:1006E000F701208131810280F381E02DC901B5013C
:1006F0000E947C0F7A836983CF01B5010E947C0F31
:1007000089819A8186179707A1F42E173F073CF439
:10071000EEE4F0E0D7011196FC93EE9318C0E217D7
:10072000F307ACF4E3E5F0E0D7011196FC93EE9308
:100730000EC0E217F3072CF4D70111963C922E92CB
:1007400006C02E173F071CF4F7015182408222E0B9
:1007500030E0E20EF31EE814F90411F63FEF6316E1
:100760003FEF7306E9F1F60183E090E022E030E02C
:1007700041E050E0DF0160816E3419F41182108293
:1007800006C06081653419F45183408307C06C91C1
:10079000633521F411963C932E9306C06C91673516
:1007A00019F411969C938E9332968E169F0611F72C
:1007B000F60180E090E06AE570E001C0CA01408186
:1007C0005181DA01A81BB90BA69F9001A79F300D9C
:1007D000B69F300D112421933193E815F90571F777
:1007E000409168075091690741305105D1F141505E
:1007F000504020E030E061E070E00F2EF3E0AF2EDB
:10080000BB24F02D88249924689482F802E010E03B
:100810007A01A9019601F901808191818A359105BA
:1008200021F0BEEF823F9B0719F47183608312C0F1
:10083000A1E08E309A0721F0BFEF863A9B0719F4AA
:10084000B182A08207C0009719F41183008302C00F
:10085000918280824F5F5F4F2E5F3F4F4E155F0545
:10086000D0F228960FB6F894DEBF0FBECDBFDF9151
:10087000CF911F910F91FF90EF90DF90CF90BF909D
:10088000AF909F908F907F906F905F904F903F9030
:100890002F900895259A2D9A0895269A2E9A0895B4
:1008A000279A2F9A08950E944A040E944D040E949C
:1008B00050040895E1E8F0E010828CEF8093850009
:1008C00081E08093840093E0909389008FEF809380
:1008D000880090938B0080938A0090938D00809382
:1008E0008C0090938700809386008BEA8093800031
:1008F000109282008CE08083089510928900682F06
:1009000070E080E090E00E94120D2BE734E14EEEA3
:100910005FE30E94790C20E030E04CE052E40E945A
:10092000150C0E94E60C60938800089510928B00CD
:10093000682F70E080E090E00E94120D2BE734E118
:100940004EEE5FE30E94790C20E030E04CE052E490
:100950000E94150C0E94E60C60938A000895109284
:100960008D00682F70E080E090E00E94120D2BE770
:1009700034E14EEE5FE30E94790C20E030E04CE081
:1009800052E40E94150C0E94E60C60938C000895BE
:1009900083E0809389008FEF80938800089583E03F
:1009A00080938B008FEF80938A00089583E080937B
:1009B0008D008FEF80938C00089584EB0E947D045E
:1009C0008FEF9FEFACE281509040A040E1F700C074
:1009D000000080E00E9496048FEF9FEFACE2815010
:1009E0009040A040E1F700C000000895CF93C82FC9
:1009F00084EB8C1B0E947D048FEF9FE7A4E0815065
:100A00009040A040E1F700C000008C2F0E949604A7
:100A10008FEF9FE7A4E081509040A040E1F700C035
:100A20000000CF9108958AB18E6F8AB9589A0895BF
:100A3000F894E9E6F0E0808182608083E89A789417
:100A400008951F920F920FB60F9211248F939F93C8
:100A5000AF93BF9380913E0590913F05A0914005D3
:100A6000B09141050196A11DB11D80933E05909363
:100A70003F05A0934005B0934105BF91AF919F9171
:100A80008F910F900FBE0F901F9018955E985F98F2
:100A900008955E9A5F9A08955E985F9A08955E9AA7
:100AA0005F9808955C9A5D9A089587B1876F87B9BA
:100AB00088B1807888B9089510BA11BA10920701E8
:100AC00010920801089581B18F6081B982B1807F51
:100AD00082B9EAE0F1E0808188618083EBE0F1E0B7
:100AE00080818861808308956C98749A08956D98C8
:100AF000759A08950E9455050E945C050E94130591
:100B00000E9463050E944A040E944D040E94500402
:100B10000E9474050E9477050895E1E2F1E01082D9
:100B20008FEF8093250191E0909324011092290189
:100B30008093280110922B0180932A0110922D019D
:100B400080932C0189EA809320018BE080830895B3
:100B5000EAE7F0E0108210927B0080E280937C0054
:100B600080E880BF86E880830895883018F098E098
:100B700090937B008770806280937C00EAE7F0E0CE
:100B8000808180648083808184FFFDCF80917900A3
:100B9000EAE7F0E090819061908310927B000895E5
:100BA000F894EAE6F0E0808182608083EC9A7894A1
:100BB0000895F894EAE6F0E0808188608083ED9AF9
:100BC000789408951F920F920FB60F9211248F936D
:100BD0009F93AF93BF9380912A0590912B05A0918D
:100BE0002C05B0912D050196A11DB11D80932A05FC
:100BF00090932B05A0932C05B0932D05BF91AF9139
:100C00009F918F910F900FBE0F901F9018951F927C
:100C10000F920FB60F9211248F939F93AF93BF93B0
:100C200080912E0590912F05A0913005B09131054E
:100C30000196A11DB11D80932E0590932F05A093C1
:100C40003005B0933105BF91AF919F918F910F9077
:100C50000FBE0F901F901895CF93DF93D82FC62FFC
:100C6000842F0E94B505482F809329058D2F6C2F66
:100C700050E023E030E00E94AD01DF91CF91089574
:100C80008093280160932A01089592B1907F8F701C
:100C9000982B92B9089586E00E944506089580E059
:100CA0000E944506089585E00E94450608958AE061
:100CB0000E944506089589E00E9445060895BC01FA
:100CC00080E090E00E94120D25EE30ED4AEA50E4FB
:100CD0000E94790C0E94E60C462F572F682F792F1F
:100CE00010922A0510922B0510922C0510922D05BA
:100CF00080912A0590912B05A0912C05B0912D058E
:100D0000481759076A077B0798F70E944F0608950E
:100D10000F931F93CF93BC0180E090E00E94120DCF
:100D200028E431EE42E850E40E94790C0E94E60C7F
:100D3000DC01CB01A0E0B0E010922A0510922B0557
:100D400010922C0510922D0510922E0510922F0551
:100D50001092300510923105F1E0C0E040912A0573
:100D600050912B0560912C0570912D0500912E0559
:100D700010912F052091300530913105EF2F481744
:100D800059076A077B0708F4EC2FEE2349F44F2F2D
:100D9000081719072A073B0708F44C2F4423F1F2E0
:100DA0000E944F06CF911F910F910895CF93DF932B
:100DB000EC010E944B06CE010E945F06DF91CF91AD
:100DC0000895CF93DF93EC010E945B06CE010E9451
:100DD0005F06DF91CF910895CF93DF93EC010E94DE
:100DE0005306CE010E948806DF91CF910895CF93DC
:100DF000DF93EC010E945706CE010E948806DF9126
:100E0000CF91089582E00E94B505809326050E9447
:100E1000530684EB64EB0E944006809126058B30DC
:100E200088F3089582E00E94B505809326050E940C
:100E3000570684EB64EB0E944006809126058B30B8
:100E400088F30895F8940E947A050E94A8050E94EC
:100E50008D050E945A040E9453040E9418050E94A6
:100E6000D0050E94D905789408950F931F93682F99
:100E700070E080E090E00E94120D2FEE39EC43E923
:100E80005FE30E94030EB62FA72F382F292F60E0B3
:100E900070E080E89FE3422F0B2F1A2F232F342F6F
:100EA000A90198010E94790C2AE939EF4EE255E434
:100EB0000E94A00D20E030E040E251E40E94A00D2D
:100EC0000E94E10C882777FD8095982F0E94140DD1
:100ED0000E94E10C862F972F23E08132920710F0B9
:100EE00080E293E01F910F9108951F93CF93DF93BA
:100EF000CAE6D7E014E083E00E94B5058093270599
:100F000082E00E94B5058093260581E00E94B50528
:100F1000809325058BE00E94B5050E943507482F78
:100F20008093240581E061E050E023E030E00E94FE
:100F3000AD0140915E0850915F0882E065E023E0DA
:100F400030E00E94AD014091260582E061E050E072
:100F500023E030E00E94AD0140916807509169079D
:100F600082E069E023E030E00E94AD0180915E08FC
:100F700090915F0820916807309169078217930765
:100F800059F488E290E00E94D6060E94DD0488E2CF
:100F900090E00E94E10619C121503040821793076A
:100FA00051F4809124058754833128F488E290E03D
:100FB0000E94D6060AC1809126058B3008F4A3C092
:100FC000809127058B3028F4809125058B3008F41B
:100FD00089C081E490E00E94D6060E944F068FEF00
:100FE0009FE7A6E181509040A040E1F700C00000DB
:100FF000E0915E08F0915F08EE0FFF1FEC0FFD1F00
:101000008081918181309105E9F48DE290E00E9428
:10101000EC060E944F068FEF9FE7A6E181509040BB
:10102000A040E1F700C000000E9402070E944F06A6
:101030008FEF9FE7A6E181509040A040E1F700C00C
:10104000000043C08230910509F43FC08330910510
:10105000E9F48DE290E00E94F7060E944F068FEFC0
:101060009FE7A6E181509040A040E1F700C000005A
:101070000E9412070E944F068FEF9FE7A6E1815062
:101080009040A040E1F700C000001FC084309105EF
:10109000E1F481E990E00E94F7060E944F068FEF8D
:1010A0009FE7A6E181509040A040E1F700C000001A
:1010B0000E9412070E944F068FEF9FE7A6E1815022
:1010C0009040A040E1F700C0000080915E08909140
:1010D0005F08019690935F0880935E0880912605D3
:1010E0008B3088F0809127058A3068F4809125053F
:1010F0008A3048F482E0809328050E944B0686E9F6
:1011000066E90E944006809125058B3088F0809129
:1011100026058A3068F4809127058A3048F483E0F8
:10112000809328050E944B0686E964E60E944006EB
:10113000809125058A3088F4809126058A3008F050
:10114000DACE809127058B3068F0109328050E9435
:101150004B0684E666E90E944006809126058A30A7
:1011600008F0C9CE809127058A3008F0C4CE80915E
:1011700025058A3008F0BFCE80912805813039F4EA
:101180000E944B0680E060E00E9440061EC0823054
:1011900031F40E944B0686E966E90E944006809180
:1011A0002805843031F40E944B0684E666E90E94EB
:1011B000400680912805833009F09DCE0E944B06A1
:1011C00086E964E60E94400696CEDF91CF911F919A
:1011D0000895109253081092520860916807709118
:1011E00069076150704020915C0830915D082617B6
:1011F0003707B0F5F901EE0FFF1FE659F84F40E051
:1012000050E0819191918430910519F44E5F5F4FC8
:101210000BC08330910519F44F5F5F4F05C08130DB
:10122000910511F4415050402F5F3F4F261737076B
:1012300040F3509353084093520830935D08209335
:101240005C082AE530E0429FC001439F900D529F09
:10125000900D1124141615062CF40E94EC0607C0FC
:1012600080E090E0909581959F4F0E94F70688E777
:1012700090E00E94E1060895CF93DF930E9452050B
:101280000E94490510923E0510923F0510924005BC
:10129000109241058FEF9FE7A4E081509040A0405D
:1012A000E1F700C0000080913E0590913F05A091BC
:1012B0004005B09141058093320590933305A0938A
:1012C0003405B09335058FEF9FE7A4E0815090403F
:1012D000A040E1F700C000000E944C0510923E05BE
:1012E00010923F0510924005109241058FEF9FE745
:1012F000A4E081509040A040E1F700C00000809140
:101300003E0590913F05A0914005B0914105809325
:10131000360590933705A0933805B09339050E94A0
:10132000460510923E0510923F051092400510921E
:1013300041058FEF9FE7A4E081509040A040E1F786
:1013400000C0000080913E0590913F05A0914005AE
:10135000B091410580933A0590933B05A0933C05DD
:10136000B0933D0580913A0590913B05A0913C05D5
:10137000B0913D05883E23E0920720E0A20720E0DF
:10138000B20708F075C18091360590913705A0919C
:101390003805B0913905883E23E0920720E0A20786
:1013A00020E0B20708F064C18091320590913305C6
:1013B000A0913405B0913505883E23E0920720E0E6
:1013C000A20720E0B20708F053C181E061E00E946B
:1013D0008D0180E092E00E947E018FEF9FEFACE2F2
:1013E00081509040A040E1F700C0000081E00E94E1
:1013F000190180C140913A0550913B0560913C052F
:1014000070913D058091320590913305A09134058E
:10141000B091350584179507A607B70708F03EC1B8
:1014200081E061E00E948D018CE092E00E947E01EB
:101430008FEF9FEFACE281509040A040E1F700C0F9
:10144000000081E00E94190186E990E00E94F60404
:101450008FEF9FEFA9E581509040A040E1F700C0D9
:1014600000000E94C8040E94CF040E94E908E09195
:101470005808F0915908CBE1D5E0EE0FFF1FEC0FB3
:10148000FD1F6081718180912105909122050E944C
:101490003A0280915808909159089C01220F331FFD
:1014A000C20FD31F28813981309322052093210553
:1014B000019690935908809358080E9475071AC1A5
:1014C0004091360550913705609138057091390586
:1014D0008091320590913305A0913405B091350586
:1014E00084179507A607B70708F0EEC081E061E012
:1014F0000E948D0186E192E00E947E018FEF9FEFB6
:10150000ACE281509040A040E1F700C0000081E0D3
:101510000E94190186E990E00E94F6048FEF9FEF88
:10152000A9E581509040A040E1F700C000000E9472
:10153000C8040E94CF040E94E908E0915408F09189
:101540005508C5E1D5E0EE0FFF1FEC0FFD1F6081D0
:10155000718180912105909122050E943A0280912B
:101560005408909155089C01220F331FC20FD31FBE
:10157000488159815093220540932105019690930B
:1015800055088093540881E06AE024E030E00E942E
:10159000AD010E947507AEC04091320550913305F0
:1015A000609134057091350580913A0590913B0525
:1015B000A0913C05B0913D0584179507A607B70794
:1015C00008F098C081E061E00E948D0181E292E024
:1015D0000E947E018FEF9FEFACE281509040A040CF
:1015E000E1F700C0000081E00E94190186E990E067
:1015F0000E94F6048FEF9FEFA9E581509040A04034
:10160000E1F700C000000E94C8040E94CF040E94BD
:10161000E908E0915608F0915708CDE0D5E0EE0FCB
:10162000FF1FEC0FFD1F608171818091210590915A
:1016300022050E943A0280915608909157089C0119
:10164000220F331FC20FD31F4881598150932205A7
:10165000409321050196909357088093560881E0A6
:101660006AE024E030E00E94AD010E94750742C0AC
:1016700040913A0550913B0560913C0570913D05C4
:101680008091360590913705A0913805B0913905C4
:1016900084179507A607B70708F4ACCE4091360526
:1016A00050913705609138057091390580913A0560
:1016B00090913B05A0913C05B0913D05841795079D
:1016C000A607B70708F4FCCE4091320550913305C8
:1016D00060913405709135058091360590913705FC
:1016E000A0913805B091390584179507A607B7076B
:1016F00008F452CFDF91CF910895EF92FF920F93AC
:101700001F93CF93DF930E9422070E94D6000E946E
:101710003E010E94DD048FEF9FEFA9E581509040CC
:10172000A040E1F700C000000E94C8040E94CF045E
:1017300080915A0890915B088C30910508F06BC03D
:10174000C5EFD4E00F2EFDE2EF2EF2E0FF2EF02DDC
:1017500001E010E010925F0810925E0810925D08A0
:1017600010925C08009711F00E94E908E0915A0875
:10177000F0915B08EE0FFF1FEC0FFD1F6081718180
:1017800080912105909122050E943A02C7010E9492
:101790007E01E0915A08F0915B08EE0FFF1FEC0FFD
:1017A000FD1F4081518181E061E024E030E00E9432
:1017B000AD018FEF9FEFACE281509040A040E1F788
:1017C00000C0000020915A0830915B08F901EE0F2B
:1017D000FF1FEC0FFD1F8081918190932205809364
:1017E00021052F5F3F4F30935B0820935A080E94DA
:1017F000750710935F0800935E0810935D080093CF
:101800005C080E943C0980915A0890915B088C30DA
:10181000910508F49FCF80E090E0DF91CF911F9178
:101820000F91FF90EF9008955058BB27AA270ED034
:101830004DC13ED130F043D120F031F49F3F11F43F
:101840001EF433C10EF4E095E7FB29C1E92F4FD117
:1018500080F3BA17620773078407950718F071F4CD
:101860009EF567C10EF4E0950B2EBA2FA02D0B014B
:10187000B90190010C01CA01A0011124FF27591BD5
:1018800099F0593F50F4503E68F11A16F040A22FDB
:10189000232F342F4427585FF3CF4695379527954C
:1018A000A795F0405395C9F77EF41F16BA0B620B4B
:1018B000730B840BBAF09150A1F0FF0FBB1F661F92
:1018C000771F881FC2F70EC0BA0F621F731F841FD5
:1018D00048F4879577956795B795F7959E3F08F0FB
:1018E000B3CF9395880F08F09927EE0F97958795BA
:1018F00008950CD0EBC0E3D040F0DAD030F021F402
:101900005F3F19F0CCC0511115C1CFC0F0D098F392
:101910009923C9F35523B1F3951B550BBB27AA2770
:1019200062177307840738F09F5F5F4F220F331FE2
:10193000441FAA1FA9F333D00E2E3AF0E0E830D0AE
:1019400091505040E695001CCAF729D0FE2F27D0B1
:10195000660F771F881FBB1F261737074807AB077F
:10196000B0E809F0BB0B802DBF01FF2793585F4FF4
:101970002AF09E3F510568F092C0DCC05F3FECF357
:10198000983EDCF3869577956795B795F7959F5FB9
:10199000C9F7880F911D9695879597F90895E1E00D
:1019A000660F771F881FBB1F621773078407BA076C
:1019B00020F0621B730B840BBA0BEE1F88F7E095C7
:1019C000089504D06894B111B5C0089598D088F0F6
:1019D0009F5790F0B92F9927B751A0F0D1F0660F1B
:1019E000771F881F991F1AF0BA95C9F712C0B13036
:1019F00081F09FD0B1E008959CC0672F782F882791
:101A0000B85F39F0B93FCCF3869577956795B39574
:101A1000D9F73EF490958095709561957F4F8F4FE3
:101A20009F4F0895E89409C097FB3EF490958095E8
:101A3000709561957F4F8F4F9F4F9923A9F0F92F94
:101A400096E9BB279395F695879577956795B79512
:101A5000F111F8CFFAF4BB0F11F460FF1BC06F5FF8
:101A60007F4F8F4F9F4F16C0882311F096E911C00A
:101A7000772321F09EE8872F762F05C0662371F02B
:101A800096E8862F70E060E02AF09A95660F771F3F
:101A9000881FDAF7880F9695879597F9089597F933
:101AA0009F6780E870E060E008959FEF80EC089504
:101AB00000240A941616170618060906089500242D
:101AC0000A9412161306140605060895092E0394A7
:101AD000000C11F4882352F0BB0F40F4BF2B11F41B
:101AE00060FF04C06F5F7F4F8F4F9F4F089557FD7A
:101AF0009058440F551F59F05F3F71F04795880F7C
:101B000097FB991F61F09F3F79F087950895121612
:101B100013061406551FF2CF4695F1DF08C01616BE
:101B200017061806991FF1CF86957105610508946F
:101B30000895E894BB2766277727CB0197F9089586
:101B40000BD0C4CFB5DF28F0BADF18F0952309F029
:101B5000A6CFABCF1124EECFCADFA0F3959FD1F370
:101B6000950F50E0551F629FF001729FBB27F00D4B
:101B7000B11D639FAA27F00DB11DAA1F649F6627A0
:101B8000B00DA11D661F829F2227B00DA11D621FEF
:101B9000739FB00DA11D621F839FA00D611D221FA9
:101BA000749F3327A00D611D231F849F600D211D8D
:101BB000822F762F6A2F11249F5750408AF0E1F030
:101BC00088234AF0EE0FFF1FBB1F661F771F881F79
:101BD00091505040A9F79E3F510570F060CFAACFB9
:101BE0005F3FECF3983EDCF3869577956795B79564
:101BF000F795E7959F5FC1F7FE2B880F911D96958E
:101C0000879597F90895FA01EE0FFF1F3096210589
:101C1000310599F16115710561F48038BFE39B07C7
:101C200049F168949038810561F08038BFEF9B07D7
:101C300041F0992342F5FF3FE1053105210511F1FE
:101C4000E8940894E795D901AA2329F4AB2FBE2F75
:101C5000F85FD0F310C0FF5F70F4A695E0F7F73996
:101C600050F019F0FF3A38F49F779F930CD00F9003
:101C700007FC905808953EF018CF60E070E080E8CF
:101C80009FE308954FE79F775F934F933F932F9381
:101C90009ED02F913F914F915F9152DF05C019F473
:101CA0000EF0FDCE46CF01CF2ADFC8F39638C0F73D
:101CB00007F80F92E8942BE33AEA48EB5FE74EDF30
:101CC0000F920F920F924DB75EB70F92C0D0E4EE15
:101CD000F0E016D04F915F91EF91FF91E595EE1FE7
:101CE000FF1F49F0FE57E0684427EE0F441FFA95A6
:101CF000E1F74195550B32D00F9007FE26C00895AD
:101D0000DF93CF931F930F93FF92EF92DF927B01AC
:101D10008C01689405C0DA2EEF011EDFFE01E89405
:101D2000A5912591359145915591AEF3EF018EDD49
:101D3000FE019701A801DA9479F7DF90EF90FF9008
:101D40000F911F91CF91DF9108959B01AC0160E04D
:101D500070E080E89FE3CDCDA2CEACC0D0DEE8F34A
:101D60009923D9F3940F511DBBF39150504094F037
:101D700059F0882332F0660F771F881F915050402A
:101D8000C1F79E3F510544F7880F911D96958795A1
:101D900097F908955F3FACF0983E9CF0BB2786957D
:101DA00077956795B79508F4B1609395C1F7BB0F28
:101DB00058F711F460FFE8CF6F5F7F4F8F4F9F4F51
:101DC000E3CFB8CE0EF076C070CE689468CE97DEC2
:101DD000C8F39923D1F3C6F3DF93CF931F930F93E7
:101DE000FF92C92FDD2788232AF02197660F771FDE
:101DF000881FDAF720E030E040E85FEB9FE38839A6
:101E000020F0803E30F021968F770FDDECE0F1E09E
:101E100003C00BDDE9E3F1E073DF8B01BE01EC01F0
:101E2000FB2E6F5771097595771F880B990BFCDD99
:101E300028E132E741E35FE38FDEAF2D9801AE0189
:101E4000FF900F911F91CF91DF9100DD3FCEFA01FE
:101E5000DC01AA0FBB1F9B01AC01BF5728F422274E
:101E60003327442750781FC0B75188F4AB2F002484
:101E7000469537952795011CA395D2F3002069F06C
:101E8000220F331F441FB395DAF30DD0CDCC613050
:101E90007105A0E88A07B94630F49B01AC016627BA
:101EA000772788279078309621F0208331834283EA
:101EB000538308959F3F31F0915020F48795779593
:101EC0006795B795880F911D9695879597F9089511
:101ED000AA1BBB1B51E107C0AA1FBB1FA617B70750
:101EE00010F0A61BB70B881F991F5A95A9F780956C
:101EF0009095BC01CD01089597FB092E07260AD0C5
:101F000077FD04D0E5DF06D000201AF470956195C6
:101F10007F4F0895F6F7909581959F4F0895F89417
:021F2000FFCFF1
:101F2200426C61636B20636F6C6F72007265642038
:101F3200636F6C6F7200626C756520636F6C6F7299
:101F420000677265656E20636F6C6F72004E455854
:101F520054204E4F4445000100020001000B0002D4
:101F620000010002000D0002000300030002000352
:101F72000004000300100004000300040012000A21
:101F8200000B000B0001000B000A000B0015000CF7
:101F9200000D000C0020000D000C000D0002000DD1
:101FA200000E000E0016000F0010000F00180010A7
:101FB200000F001000110011001000110025001286
:101FC2000004001200130012001900130012001482
:101FD2000015001500140015000B0015001F001657
:101FE200000E001600220016001700170016001738
:101FF2000029001700180018000F00180017001819
:102002000023001900120019001A00190026001AF4
:102012000019001E001F001F0015001F001E001FD8
:1020220000330020000C00200021002100200021AC
:102032000022002100340022002100220016002389
:10204200001800230024002400230024002500247B
:102052000037002500240025001100260019002663
:102062000038002600270027002600280029002823
:10207200003500290017002900280029002A002A1B
:102082000029002A0036003200330033001F0033DB
:102092000032003300340033004700340033003490
:1020A2000021003400350034004900350028003595
:1020B20000340035003C0036002A00360037003676
:1020C200003E003700360037002400370038003762
:1020D200004C003800370038002600380047003C2A
:1020E2000035003C003D003D003C003D003E003D0F
:1020F2000053003E003D003E0036004600470047C8
:10210200004600470033004700510048004900489C
:10211200005C00490034004900480049004A004A76
:102122000049004A0052004B0054004B004C004C46
:102132000037004C004B004C004D004D004C004D50
:102142000061004E0038004E0055004E004F004F17
:10215200004E005000510051005000510047005104
:10216200005B0052004A0052005E005200530053CE
:10217200003D00530052005300540054004B0054E1
:10218200005F0055004E0055006200550056005693
:102192000055005A005B005B0051005B005A005B77
:1021A2000064005C0048005C005D005D005C005D56
:1021B2000065005D005E005E0052005E005D005F33
:1021C2000054005F00600060005F0060006100601A
:1021D20000660061004D006100600062005500620F
:1021E200006300620067006300620064005B0064D9
:1021F20000650065005D00650064006500660066BC
:1022020000600066006500660067006700620067A4
:102212000066006E001E0014000A00460050005ABC
:1022220000630056004F0027001A001300350029F2
:102232000036003D0049005D00520021000D0016ED
:042242000032000066
:00000001FF
