:100000000C94B3000C94D4000C94D4000C94D40041
:100010000C94D4000C942B060C9406060C94D4007B
:100020000C94D4000C94D4000C94D4000C94D40000
:100030000C94D4000C94D4000C94D4000C94D400F0
:100040000C94D4000C94D4000C94D4000C94D400E0
:100050000C94D4000C94D4000C94D4000C94D400D0
:100060000C94D4000C9408050C94D4000C94D40087
:100070000C94D4000C94D4000C94D4000C94D400B0
:100080000C94D4000C94D4000C94D4000C94D400A0
:100090000C94D4000C94D4000C94D4000C94D40090
:1000A0000C94D4000C94D4000C94D4000C94D40080
:1000B0000C94D4000C94D4000C94D4000C94D40070
:1000C0000C94D4000C94D4000C94D4000C94D40060
:1000D0000C94D4000C94D4000C94D4000C94D40050
:1000E0000C94D40007634236B79BD8A71A396856D8
:1000F00018AEBAAB558C1D3CB7CC5763BD6DEDFD4A
:10010000753EF6177231BF000000803F0800000006
:10011000BE922449123EABAAAA2ABECDCCCC4C3EFC
:1001200000000080BEABAAAAAA3E00000000BF00EB
:100130000000803F0000000000084178D3BB4387E7
:10014000D1133D190E3CC3BD4282AD2B3E68EC82FB
:1001500076BED98FE1A93E4C80EFFFBE01C4FF7F80
:100160003F000000000011241FBECFEFD1E2DEBF30
:10017000CDBF00E00CBF14E0A0E0B2E0E6E8F3E29F
:1001800000E00BBF02C007900D92A839B107D9F764
:100190001CE0A8E9B4E001C01D92AA31B107E1F763
:1001A0000E94630A0C94C1110C94000086E69EE044
:1001B0000197F1F700004098419880E388B9429A8E
:1001C000EFEFF7E43197F1F700C000004298E6E660
:1001D000FEE03197F1F700004098419888B9429AC3
:1001E000EFEFF7E43197F1F700C000004298E6E640
:1001F000FEE03197F1F700004098419888B9429AA3
:100200008FEF97E40197F1F700C000004298E6E60F
:10021000FEE03197F1F700004098419880E288B9FC
:10022000429A8FEF97E40197F1F700C000004298DF
:10023000089598B19F7098B998B1282F207F922B7C
:1002400098B940984198429AEFEFF7E43197F1F767
:1002500000C00000429898B19F7098B998B18295FB
:10026000807F892B88B940984198429A8FEF97E414
:100270000197F1F700C00000429808950E94D6004F
:1002800086E69EE00197F1F7000088E20E941901DE
:1002900081E00E94190186E00E9419018EE00E940F
:1002A000190180E80E941901089598B19F7098B9CA
:1002B00098B1282F207F922B98B9409A4198429A62
:1002C000EFEFF7E43197F1F700C00000429898B1E2
:1002D0009F7098B998B18295807F892B88B9409A90
:1002E0004198429A8FEF97E40197F1F700C0000020
:1002F0004298089580E80E9419010895CF93DF93F2
:10030000EC018881882331F021960E945501899162
:100310008823D9F7DF91CF910895823079F0833027
:1003200018F48130C9F405C0833069F08430A1F439
:100330000FC0862F81580E9419010895862F81547D
:100340000E9419010895862F8D560E941901089563
:10035000862F8D520E94190108950F931F93CF93FA
:10036000DF938A01E901882311F0662319F40E94C2
:100370007A0102C00E948D01C530D10571F4C80117
:1003800060E177E20E949A11CB01C09690937D06BE
:1003900080937C060E94550103C0C430D105B9F496
:1003A000C80168EE73E00E949A11CB0170937F063A
:1003B00060937E066AE070E00E949A11C096909366
:1003C000150C8093140C0E94550181E001C080E05F
:1003D000C330D10511F08130B1F4C80164E670E09A
:1003E0000E949A11CB0170937F0660937E066AE0AB
:1003F00070E00E949A11C09690937E0A80937D0AC5
:100400000E94550181E0C230D10511F08130B1F474
:100410002AE030E0C801B9010E949A11CB01709323
:100420007F0660937E06B9010E949A11C096909350
:100430006A0A8093690A0E94550181E0C130D105A2
:1004400011F0813061F4C8016AE070E00E949A11F5
:10045000C0969093130C8093120C0E945501C630E5
:10046000D1051CF085E40E945501DF91CF911F91C9
:100470000F9108959C01E2E0F2E04EEB54E0DF01C1
:10048000808191818217930729F08281938182175D
:10049000930739F411961C921E9213961C921E9289
:1004A00012973496E417F50751F70895CF92DF922B
:1004B000EF92FF920F931F93CF93DF93AC01E2E093
:1004C000F2E00EEB14E060E070E00F2EFDE6CF2EC0
:1004D000FAE0DF2EF02D0F2EF4EBEF2EFF24F02D9F
:1004E000DF01208131812417350729F08281938132
:1004F00084179507C9F4CB01880F991F880F991F9E
:10050000E601C80FD91F3983288312968D919C91DB
:1005100013979B838A836F5F7F4F1196FC92EE92B5
:100520001396FC92EE9212973496E017F107C1F6FB
:10053000643071058CF4FB01EE0FFF1FEE0FFF1FFF
:10054000E359F54F8DE79AE01182108213821282EF
:100550003496E817F907C1F7DF91CF911F910F91FA
:10056000FF90EF90DF90CF900895CF93DF93A2E0BC
:10057000B2E02EEB34E040E050E06DE67AE0ED01D1
:100580008D919C911197843B9105C1F412968D91A8
:100590009C911397843B910589F4FA01EE0FFF1F9C
:1005A000EE0FFF1FE60FF71F8081918199838883EB
:1005B000828193819B838A834F5F5F4F1496A2173A
:1005C000B307E9F6DF91CF9108952F923F924F92B2
:1005D0005F926F927F928F929F92AF92BF92CF92D3
:1005E000DF92EF92FF920F931F93CF93DF93CDB7DC
:1005F000DEB728970FB6F894DEBF0FBECDBF1C0143
:100600004B0180919604909197049C01220F331F17
:10061000220F331F820F931F8058994F26E0803896
:10062000920789F080F0E0E8F6E02FEF3FEF4FE02F
:1006300057E261E03183208353834283648335969C
:10064000E817F907B8F3F401EE0FFF1FEE0FFF1FD5
:10065000E80DF91DE058F94F138212821482C09000
:100660009604D0909704A401662477240F2EF4E812
:100670004F2EF6E05F2EF02DC20104979C838B83F2
:100680004D825E826EE874E00F2EF2E0AF2EF2E053
:10069000BF2EF02DC114D10409F46EC0F201EB801D
:1006A000FC800D811E81D301CA01880F991F880F1C
:1006B000991F840F951F8058994F9C012E5F3F4FC3
:1006C0003A83298318870F8387017F0138C080818F
:1006D00091818417950729F4828193818A179B075A
:1006E00039F03496E617F70791F738872F831BC048
:1006F00038872F83F90180818130A9F4E981FA815B
:10070000808191810196F8012281338182179307BC
:1007100050F451834083E981FA818081918101966F
:10072000F8019383828311962F8138852B5F3F4F89
:1007300038872F830B5F1F4FAC15BD0520F4F501E3
:100740002F813885C4CFAFE0B7E2A30193018701C1
:10075000F8018081813041F43297808191818A173C
:100760009B0710F4DC01A9012F5F3F4F0B5F1F4F68
:100770002C153D0569F701C0A301CA01880F991F17
:10078000880F991F840F951F8058994FDC0114968C
:100790001C9214974215530509F07CCF0F2EF8EEEA
:1007A000CF2EF4E0DF2EF02DF601910140E050E075
:1007B00000E816E001C0AB0121933193BA016F5FED
:1007C0007F4FC901880F991F880F991F820F931FB0
:1007D000800F911FDC012D913C911197281539054F
:1007E00051F7FB01EE0FFF1FE851FB4F9182808212
:1007F000CA0102969093E7048093E604BFEF4F3F4F
:100800005B0779F0AFE7BAE0CA01880F991F8651FC
:100810009B4FF601219131912D933D93E817F907F4
:10082000C9F76090E6047090E704C301880F991F30
:100830000F2EF6EE8F2EF4E09F2EF02D880E991ECF
:1008400076010F2EFAE0AF2EBB24F02D0F2EF5E42B
:100850004F2E5524F02D0F2EF7E52F2E3324F02D9B
:100860003BC0F701208131810280F381E02DC90175
:10087000B5010E94AE117A836983CF01B5010E9450
:10088000AE1189819A8186179707A1F42E173F0729
:100890003CF4E3E5F0E0D7011196FC93EE9318C029
:1008A000E217F307ACF4EEE4F0E0D7011196FC9305
:1008B000EE930EC0E217F3072CF4D70111963C9289
:1008C0002E9206C02E173F071CF4F701518240827A
:1008D00022E030E0E20EF31EE814F90411F631E0F4
:1008E00063167104E9F1F60183E090E022E030E064
:1008F00041E050E0DF0160816E3419F41182108212
:1009000006C06081653419F45183408307C06C913F
:10091000633521F411963C932E9306C06C91673594
:1009200019F411969C938E933296E815F90511F7F8
:10093000F60180E090E06AE570E001C0CA01408104
:100940005181DA01A81BB90BA69F9001A79F300D1A
:10095000B69F300D112421933193E815F90571F7F5
:100960004091E6045091E70441305105C1F14150F6
:10097000504020E030E063E070E0AA24BB24A39460
:1009800088249924689481F804E010E07A01A90190
:100990009601F901808191818A35910521F0BEEFA0
:1009A000823F9B0719F47183608312C0A1E08E30EF
:1009B0009A0721F0BFEF863A9B0719F4B182A08213
:1009C00007C0009719F41183008302C091828082CE
:1009D0004F5F5F4F2E5F3F4F4E155F05D0F2289659
:1009E0000FB6F894DEBF0FBECDBFDF91CF911F9140
:1009F0000F91FF90EF90DF90CF90BF90AF909F90BE
:100A00008F907F906F905F904F903F902F900895C0
:100A10001F920F920FB60F9211248F939F93809184
:100A2000C60090E09093170C8093160C85399105C1
:100A300061F485E990E090939D0480939C0488EC98
:100A400090E09093170C8093160C9F918F910F90CC
:100A50000FBE0F901F901895E1ECF0E010821092FD
:100A6000C00086E08093C2008FE58093C40010929E
:100A7000C50088E980830895E1EDF0E010821092CE
:100A8000D00086E08093D2008FE58093D40010924E
:100A9000D50088E98083089580EE8093010110924B
:100AA0000201089580E880930201089510920201E6
:100AB000089580E280930201089580E4809302010A
:100AC000089581B18F6081B982B1807F82B9EAE0F7
:100AD000F1E0808188618083EBE0F1E080818861D2
:100AE0008083089587B1876F87B988B1807888B986
:100AF000089510BA11BA10920701109208010895D2
:100B00006C98749A08956D98759A08953B9A4398D5
:100B10000895259A2D9A08950E9489050E946105DD
:100B20000E9480050E9483050E9472050E9479053B
:100B30000E9486050E944C050895E1E2F1E01082D2
:100B40008FEF8093250191E0909324011092290169
:100B50008093280110922B0180932A0110922D017D
:100B600080932C0189EA809320018BE08083089593
:100B7000EAE7F0E0108210927B0080E280937C0034
:100B800080E880BF86E880830895883018F098E078
:100B900090937B008770806280937C00EAE7F0E0AE
:100BA000808180648083808184FFFDCF8091790083
:100BB000EAE7F0E090819061908310927B000895C5
:100BC000CF93DF93D82FC62F842F0E94C505482FBF
:100BD0008093680A8D2F6C2F50E023E030E00E9454
:100BE000AD01DF91CF910895F894EAE6F0E08081BD
:100BF00082608083EC9A78940895F894EAE6F0E0B5
:100C0000808188608083ED9A789408951F920F9276
:100C10000FB60F9211248F939F93AF93BF93809140
:100C2000DE049091DF04A091E004B091E10401960C
:100C3000A11DB11D8093DE049093DF04A093E00416
:100C4000B093E104BF91AF919F918F910F900FBE30
:100C50000F901F9018951F920F920FB60F921124AC
:100C60008F939F93AF93BF938091E2049091E3049D
:100C7000A091E404B091E5040196A11DB11D8093FB
:100C8000E2049093E304A093E404B093E504BF91DD
:100C9000AF919F918F910F900FBE0F901F9018955D
:100CA0008093280160932A01089592B1907F8F70FC
:100CB000982B92B9089586B1886088B9089586B155
:100CC000877F88B9089586E00E945506089589E0D7
:100CD0000E945506089585E00E94550608958AE011
:100CE0000E945506089584E00E945506089582E00A
:100CF0000E945506089581E00E945506089588E0F7
:100D00000E945506089580E00E94550608950F93AD
:100D10001F93682F70E080E090E00E94440F2FEE58
:100D200039EC43E95FE30E943510B62FA72F382F27
:100D3000292F60E070E080E89FE3422F0B2F1A2FED
:100D4000232F342FA90198010E94AB0E2AE939EF15
:100D50004EE255E40E94D20F20E030E040E251E440
:100D60000E94D20F0E94130F882777FD8095982F3D
:100D70000E94460F0E94130F862F972F23E0813287
:100D8000920710F080E293E01F910F9108950F9366
:100D90001F93CF93BC0180E090E00E94440F28E4B1
:100DA00031EE42E850E40E94AB0E0E94180FDC01C5
:100DB000CB01A0E0B0E01092DE041092DF041092AC
:100DC000E0041092E1041092E2041092E304109205
:100DD000E4041092E504F1E0C0E04091DE0450919B
:100DE000DF046091E0047091E1040091E20410914D
:100DF000E3042091E4043091E504EF2F48175907EC
:100E00006A077B0708F4EC2FEE2349F44F2F0817ED
:100E100019072A073B0708F44C2F4423F1F20E94DC
:100E20008306CF911F910F910895BC0180E090E05F
:100E30000E94440F25EE30ED4AEA50E40E94AB0ECA
:100E40000E94180F462F572F682F792F1092DE041B
:100E50001092DF041092E0041092E1048091DE040D
:100E60009091DF04A091E004B091E1044817590784
:100E70006A077B0798F70E9483060895CF93DF9354
:100E8000EC010E946306CE010E941507DF91CF910D
:100E90000895CF93DF93EC010E946706CE010E9474
:100EA0001507DF91CF910895CF93DF93EC010E9456
:100EB0006B06CE010E94C706DF91CF910895CF93B4
:100EC000DF93EC010E946F06CE010E94C706DF91FE
:100ED000CF910895CF93DF93EC010E947306CE016A
:100EE000880F991F0E94C706DF91CF910895CF9375
:100EF000DF93EC010E947706CE01880F991F0E94B4
:100F0000C706DF91CF910895CF93DF93EC010E9444
:100F10007B06CE01880F991F0E94C706DF91CF91F3
:100F20000895CF93DF93EC010E947F06CE01880FD6
:100F3000991F0E94C706DF91CF91089582E00E9419
:100F4000C505809399040E946B0684EB64EB0E94B4
:100F5000500680919904863188F30895E1E8F0E025
:100F600010828CEF8093850081E08093840093E071
:100F7000909389008FEF8093880090938B008093EB
:100F80008A0090938D0080938C00909387008093CB
:100F900086008BEA80938000109282008CE0808330
:100FA000089510928900682F70E080E090E00E9420
:100FB000440F2BE734E14EEE5FE30E94AB0E20E0DE
:100FC00030E04CE052E40E94470E0E94180F6093FC
:100FD0008800089580E00E94D107089583E08093FF
:100FE00089008FEF80938800089582E00E94C505F4
:100FF000809399040E946F0684EB64EB0E94500674
:1010000080919904863188F3089584EB64EB0E9403
:1010100050068FE090E00E945F070E949E0784EBDD
:1010200064EB0E9450068FE090E00E9454070E94FB
:10103000F5070895CF93DF9324E030E0B9010E94D3
:10104000AE11E901C81BD90B8091E8049091E90425
:101050008C0F9D1F9C01237030702115310561F4A8
:101060008FEF9FE7A4E081509040A040E1F700C0DF
:1010700000000E9405082DC064E070E00E94AE11DF
:101080008230910591F486E990E00E945F070E940A
:10109000F5078FEF9FE7A4E081509040A040E1F773
:1010A00000C000000E94050814C08330910589F437
:1010B0008DE290E00E945F070E94F5078FEF9FE7A7
:1010C000A4E081509040A040E1F700C000000E94E1
:1010D00005088091E8049091E9048C0F9D1F64E05D
:1010E00070E00E94AE118130910589F48DE290E0AC
:1010F0000E9454070E949E078FEF9FE7A4E0815053
:101100009040A040E1F700C000000E940508DF9178
:10111000CF910895F8940E948C050E94B8050E9412
:101120009D050E94AE070E942C050E943C050E946E
:10113000F4050E94FD05789408956F927F928F9236
:101140009F92AF92BF92CF92DF92EF92FF920F9356
:101150001F93CF93DF938C010E94E50280919E0440
:1011600090919F040E941A0820919E0430919F0440
:101170008091E8049091E90490939F0480939E04E9
:101180000A35110541F001E010E02115310559F44F
:1011900000E010E008C084E090E09093E9048093C0
:1011A000E80401E010E00F2EFFE7EF2EFAE0FF2E3B
:1011B000F02D0F2EF8EECF2EF4E0DF2EF02DAA2426
:1011C000BB246894A2F80F2EF3E06F2E7724F02D45
:1011D00088249924839483E00E94C50580939A040F
:1011E00082E00E94C5058093990481E00E94C505B4
:1011F000809398048BE00E94C50580930F0C0E9499
:1012000087069093190C8093180C81559040813378
:101210009105C8F50E9483068FEF9FEFACE28150E5
:101220009040A040E1F700C000000F2EFFE7EF2E36
:10123000FAE0FF2EF02DE801CC0FDD1FCE0DDF1DF3
:10124000888199810E943A02E6ECF0E08EE6808384
:101250008FEF9FE7A4E081509040A040E1F700C0ED
:1012600000008881998180936B0A90936C0A808337
:1012700001501040000F111FE00EF11ED7018D919B
:101280009C91119711C180919904853188F59091B5
:101290009A04953168F590919804953148F5C130DC
:1012A000D10539F40E94630688EC68EC0E94500670
:1012B00014C0C230D10539F40E9463068CE868EC92
:1012C0000E94500688CFC330D10539F40E946306CE
:1012D00088EC6CE80E9450067ECFC430D10509F03E
:1012E0007ACF0E94630688EC68EC0E94500673CFA8
:1012F000863180F090919A04953160F49091980431
:10130000953140F40E9463068AEF6AEF0E9450060E
:10131000E40161CF8531F8F490919A04963168F038
:1013200020919804253148F40E9463068AEA6AEF06
:101330000E945006C2E0D0E04ECF953160F490910B
:101340009804963140F00E9463068AEF6AEA0E9490
:101350005006E30140CF863108F43DCF80919A04D6
:10136000863120F090919804953141F4853108F050
:1013700032CF80919804863108F42DCFE801CC0F4C
:10138000DD1FF701EC0FFD1F4081518182E069E014
:1013900022E030E00E94AD01F601EC0FFD1F8081DC
:1013A000918181309105F9F480919E0490919F0480
:1013B000019690939F0480939E048BE490E00E949A
:1013C0003E078DE290E00E9454070E949E070E9413
:1013D00083068FEF9FE7A4E081509040A040E1F7A3
:1013E00000C000005BC08430910571F480919E04C0
:1013F00090919F04049690939F0480939E048DE2A5
:1014000090E00E943E074AC083309105F9F4809134
:101410009E0490919F04039690939F0480939E0452
:101420008BE490E00E943E078DE290E00E945F070F
:101430000E94F5070E9483068FEF9FE7A4E081508A
:101440009040A040E1F700C0000028C08230910524
:10145000E9F480919E0490919F04029690939F04DA
:1014600080939E048BE490E00E943E0786E990E022
:101470000E945F070E94F5078FEF9FE7A4E081506D
:101480009040A040E1F700C0000008C08091E60451
:101490009091E70401970817190721F00F5F1F4F7C
:1014A000E50199CE81E090E0DF91CF911F910F91FE
:1014B000FF90EF90DF90CF90BF90AF909F908F9074
:1014C0007F906F9008952F923F924F925F926F920C
:1014D0007F928F929F92AF92BF92CF92DF92EF92C4
:1014E000FF920F931F93CF93DF9300D00F92CDB74E
:1014F000DEB70E948A080E94D6000E943E010E9428
:10150000EA070E94560588EC90E090936C0A80935D
:101510006B0A88EC8093C6008FEF9FE7A4E08150B0
:101520009040A040E1F700C000001092A10410928A
:10153000A0040F2EFDE2CF2EDD24F02D0F2EF4EAB5
:10154000AF2EF4E0BF2EF02D0F2EF6EA8F2EF4E032
:101550009F2EF02D0F2EF8EA6F2EF4E07F2EF02D47
:101560000F2EFAEA4F2EF4E05F2EF02D02EA14E07F
:101570003324339422248091160C9091170C8E36CC
:10158000910591F4AFEFBFE81197F1F700C00000AB
:101590008091160C9091170C8E36910599F38B352E
:1015A000910514F40E943A028091160C9091170C48
:1015B0008639910509F0D4C0EAEFF0E0F0936C0AA7
:1015C000E0936B0A8AEF8093C6008FEF9FEFACE247
:1015D00081509040A040E1F700C000008091160CBF
:1015E0009091170C8639910569F4AFEFBFE8119718
:1015F000F1F700C000008091160C9091170C86390D
:10160000910599F39093110C8093100C2091160C76
:101610003091170C2817390789F4EFEFFFE831975D
:10162000F1F700C000002091160C3091170C80914A
:10163000100C9091110C2817390779F33093790623
:10164000209378068091160C9091170C82179307BF
:1016500089F48FEF9FE80197F1F700C000008091B7
:10166000160C9091170C209178063091790682170C
:10167000930779F3D50111969C938E938091160C64
:101680009091170C2D913C9111978217930789F433
:10169000EFEFFFE83197F1F700C000008091160CE2
:1016A0009091170CD5012D913C91119782179307BA
:1016B00079F3F401918380838091160C9091170C3B
:1016C000208131818217930789F48FEF9FE801977A
:1016D000F1F700C000008091160C9091170CD40116
:1016E0002D913C9111978217930779F3F301918320
:1016F00080838091160C9091170C20813181821784
:10170000930789F48FEF9FE80197F1F700C000007D
:101710008091160C9091170CD3012D913C9111974B
:101720008217930779F3F20191838083C090160C9E
:10173000D090170C80819181C816D90689F48FEF5B
:101740009FE80197F1F700C00000C090160CD09000
:10175000170CD2018D919C911197C816D90679F377
:101760008091160C9091170C883C910509F003CFDD
:10177000EAEFF0E0F0936C0AE0936B0A8AEF809353
:10178000C6008FEF9FEFACE281509040A040E1F7A0
:1017900000C00000C982DA828C2D9D2D0E94560265
:1017A000A1E0B0E0BC83AB838B819C81880F991F43
:1017B000800F911FFC01808191818C35910509F08A
:1017C00027C10E9452058091000290910102813050
:1017D000910569F06091100C7091110C0E949D08A8
:1017E00090930102809300028130910599F78091D6
:1017F000100C9091110C909301028093000284E6EA
:1018000090E00E943E078FEF9FEFACE28150904046
:10181000A040E1F700C00000809100029091010219
:101820008130910569F060917806709179060E9487
:101830009D0890930102809300028130910599F7F1
:1018400084E690E00E943E078FEF9FEFACE281506C
:101850009040A040E1F700C0000080917806909190
:1018600079069093010280930002EB80FC8008943B
:10187000E108F108C701880F991F800F911FDC0153
:101880008D919C91119785369105F9F48AE590E048
:101890000E945F078FEF9FEFACE281509040A04025
:1018A000E1F700C000000E945B068FEF9FEFACE203
:1018B00081509040A040E1F700C000000E945F0608
:1018C0000E949E070E9483061EC08AE590E00E9447
:1018D00054078FEF9FEFACE281509040A040E1F7BA
:1018E00000C000000E945B068FEF9FEFACE28150CA
:1018F0009040A040E1F700C000000E945F060E94F7
:10190000F5070E94830680910002909101028130C8
:10191000910559F066E570E00E949D0890930102E0
:101920008093000281309105A9F786E590E09093BD
:101930000102809300028BE490E00E943E078FEF4B
:101940009FEFACE281509040A040E1F700C0000062
:1019500080910002909101028130910559F065E576
:1019600070E00E949D0890930102809300028130F4
:101970009105A9F785E590E090930102809300021C
:101980008BE490E00E943E078FEF9FEFACE2815026
:101990009040A040E1F700C000008AE590E00E947E
:1019A0005F078FEF9FEFACE281509040A040E1F7DE
:1019B00000C000000E9483060E945B068FEF9FEF2D
:1019C000ACE281509040A040E1F700C000000E94CE
:1019D0005F068DE290E00E9454070E949E070E94DD
:1019E00083060E9456058B819C81880F991F800F6A
:1019F000911FDC0111961C921E92C701880F991F3E
:101A0000800F911FFC01118210823B822C82CCCE70
:101A10008B819C8101969C838B83853091050CF48E
:101A2000C3CEA1E0B0E0BC83AB838B819C81880FE7
:101A3000991F800F911FFC01808191818D35910547
:101A400009F0D5C00E945D058091000290910102CD
:101A50008130910569F06091100C7091110C0E9419
:101A60009D0890930102809300028130910599F7BF
:101A70008091100C9091110C9093010280930002C0
:101A800084E690E00E943E078FEF9FEFACE281502A
:101A90009040A040E1F700C00000809100029091CA
:101AA00001028130910569F06091780670917906A4
:101AB0000E949D089093010280930002813091055D
:101AC00099F780917806909179069093010280931E
:101AD000000284E690E00E943E078FEF9FEFACE2A9
:101AE00081509040A040E1F700C00000EB80FC80F6
:101AF0000894E108F108C701880F991F800F911F12
:101B0000DC018D919C9111978536910569F58AE5E7
:101B100090E00E945F078FEF9FEFACE28150904012
:101B2000A040E1F700C000008BE40E94D1078FEFD6
:101B30009FEFACE281509040A040E1F700C0000070
:101B40000E94EA070E945B068FEF9FEFACE2815094
:101B50009040A040E1F700C000000E945F060E9494
:101B60009E070E9483062CC08AE590E00E945407DD
:101B70008FEF9FEFACE281509040A040E1F700C0B2
:101B800000008BE40E94D1078FEF9FEFACE2815001
:101B90009040A040E1F700C000000E94EA070E94C8
:101BA0005B068FEF9FEFACE281509040A040E1F7E1
:101BB00000C000000E945F060E94F5070E94830695
:101BC0000E9456058B819C81880F991F800F911F61
:101BD000DC0111961C921E92C701880F991F800F7D
:101BE000911FFC01118210823B822C821ECF8B81BF
:101BF0009C8101969C838B83853091050CF415CFD5
:101C000089819A810E94B50288EC90E090936C0AD9
:101C100080936B0A88EC8093C6008FEF9FEFA6E855
:101C200081509040A040E1F700C0000080919C04EA
:101C300090919D048539910509F09DCC0E945B0629
:101C40008FEF9FEFA6E7B1E081509040A040B040F9
:101C5000D9F700C000000E945F0680E090E00F907E
:101C60000F900F900F90DF91CF911F910F91FF90E8
:101C7000EF90DF90CF90BF90AF909F908F907F902C
:101C80006F905F904F903F902F9008955058BB27D2
:101C9000AA270ED04DC13ED130F043D120F031F40F
:101CA0009F3F11F41EF433C10EF4E095E7FB29C108
:101CB000E92F4FD180F3BA1762077307840795079E
:101CC00018F071F49EF567C10EF4E0950B2EBA2F53
:101CD000A02D0B01B90190010C01CA01A001112432
:101CE000FF27591B99F0593F50F4503E68F11A16DE
:101CF000F040A22F232F342F4427585FF3CF46956F
:101D000037952795A795F0405395C9F77EF41F1690
:101D1000BA0B620B730B840BBAF09150A1F0FF0F5A
:101D2000BB1F661F771F881FC2F70EC0BA0F621F46
:101D3000731F841F48F4879577956795B795F79536
:101D40009E3F08F0B3CF9395880F08F09927EE0FC8
:101D50009795879508950CD0EBC0E3D040F0DAD08A
:101D600030F021F45F3F19F0CCC0511115C1CFC044
:101D7000F0D098F39923C9F35523B1F3951B550B74
:101D8000BB27AA2762177307840738F09F5F5F4F4E
:101D9000220F331F441FAA1FA9F333D00E2E3AF08F
:101DA000E0E830D091505040E695001CCAF729D0A9
:101DB000FE2F27D0660F771F881FBB1F26173707F8
:101DC0004807AB07B0E809F0BB0B802DBF01FF2728
:101DD00093585F4F2AF09E3F510568F092C0DCC0D7
:101DE0005F3FECF3983EDCF3869577956795B79562
:101DF000F7959F5FC9F7880F911D9695879597F97D
:101E00000895E1E0660F771F881FBB1F62177307F5
:101E10008407BA0720F0621B730B840BBA0BEE1F0A
:101E200088F7E095089504D06894B111B5C008957D
:101E300098D088F09F5790F0B92F9927B751A0F00C
:101E4000D1F0660F771F881F991F1AF0BA95C9F74E
:101E500012C0B13081F09FD0B1E008959CC0672FCF
:101E6000782F8827B85F39F0B93FCCF386957795FE
:101E70006795B395D9F73EF49095809570956195E7
:101E80007F4F8F4F9F4F0895E89409C097FB3EF412
:101E900090958095709561957F4F8F4F9F4F9923B7
:101EA000A9F0F92F96E9BB279395F6958795779535
:101EB0006795B795F111F8CFFAF4BB0F11F460FFF5
:101EC0001BC06F5F7F4F8F4F9F4F16C0882311F04D
:101ED00096E911C0772321F09EE8872F762F05C061
:101EE000662371F096E8862F70E060E02AF09A95FC
:101EF000660F771F881FDAF7880F9695879597F9F1
:101F0000089597F99F6780E870E060E008959FEF7B
:101F100080EC089500240A94161617061806090680
:101F2000089500240A94121613061406050608954F
:101F3000092E0394000C11F4882352F0BB0F40F4D7
:101F4000BF2B11F460FF04C06F5F7F4F8F4F9F4F17
:101F5000089557FD9058440F551F59F05F3F71F099
:101F60004795880F97FB991F61F09F3F79F0879500
:101F70000895121613061406551FF2CF4695F1DF89
:101F800008C0161617061806991FF1CF8695710519
:101F9000610508940895E894BB2766277727CB014D
:101FA00097F908950BD0C4CFB5DF28F0BADF18F049
:101FB000952309F0A6CFABCF1124EECFCADFA0F353
:101FC000959FD1F3950F50E0551F629FF001729FCE
:101FD000BB27F00DB11D639FAA27F00DB11DAA1FED
:101FE000649F6627B00DA11D661F829F2227B00D3A
:101FF000A11D621F739FB00DA11D621F839FA00DC5
:10200000611D221F749F3327A00D611D231F849F14
:10201000600D211D822F762F6A2F11249F5750406B
:102020008AF0E1F088234AF0EE0FFF1FBB1F661F06
:10203000771F881F91505040A9F79E3F510570F0BF
:1020400060CFAACF5F3FECF3983EDCF3869577959F
:102050006795B795F795E7959F5FC1F7FE2B880FBA
:10206000911D9695879597F90895FA01EE0FFF1F38
:1020700030962105310599F16115710561F48038BB
:10208000BFE39B0749F168949038810561F080387F
:10209000BFEF9B0741F0992342F5FF3FE105310572
:1020A000210511F1E8940894E795D901AA2329F4B0
:1020B000AB2FBE2FF85FD0F310C0FF5F70F4A69572
:1020C000E0F7F73950F019F0FF3A38F49F779F9313
:1020D0000CD00F9007FC905808953EF018CF60E0A8
:1020E00070E080E89FE308954FE79F775F934F93F9
:1020F0003F932F939ED02F913F914F915F9152DF4D
:1021000005C019F40EF0FDCE46CF01CF2ADFC8F38B
:102110009638C0F707F80F92E8942BE33AEA48EBB9
:102120005FE74EDF0F920F920F924DB75EB70F929F
:10213000C0D0E4EEF0E016D04F915F91EF91FF91A7
:10214000E595EE1FFF1F49F0FE57E0684427EE0FAC
:10215000441FFA95E1F74195550B32D00F9007FED9
:1021600026C00895DF93CF931F930F93FF92EF92B2
:10217000DF927B018C01689405C0DA2EEF011EDF2F
:10218000FE01E894A5912591359145915591AEF3C5
:10219000EF018EDDFE019701A801DA9479F7DF9057
:1021A000EF90FF900F911F91CF91DF9108959B01C8
:1021B000AC0160E070E080E89FE3CDCDA2CEACC082
:1021C000D0DEE8F39923D9F3940F511DBBF391505E
:1021D000504094F059F0882332F0660F771F881F23
:1021E00091505040C1F79E3F510544F7880F911D13
:1021F0009695879597F908955F3FACF0983E9CF0CF
:10220000BB27869577956795B79508F4B160939548
:10221000C1F7BB0F58F711F460FFE8CF6F5F7F4F36
:102220008F4F9F4FE3CFB8CE0EF076C070CE68943C
:1022300068CE97DEC8F39923D1F3C6F3DF93CF932B
:102240001F930F93FF92C92FDD2788232AF0219730
:10225000660F771F881FDAF720E030E040E85FEB79
:102260009FE3883920F0803E30F021968F770FDD94
:10227000ECE0F1E003C00BDDE9E3F1E073DF8B019B
:10228000BE01EC01FB2E6F5771097595771F880B06
:10229000990BFCDD28E132E741E35FE38FDEAF2DF0
:1022A0009801AE01FF900F911F91CF91DF9100DD5A
:1022B0003FCEFA01DC01AA0FBB1F9B01AC01BF5747
:1022C00028F422273327442750781FC0B75188F4B9
:1022D000AB2F0024469537952795011CA395D2F383
:1022E000002069F0220F331F441FB395DAF30DD09D
:1022F000CDCC61307105A0E88A07B94630F49B0166
:10230000AC016627772788279078309621F02083C4
:1023100031834283538308959F3F31F0915020F4DD
:10232000879577956795B795880F911D96958795B1
:1023300097F90895AA1BBB1B51E107C0AA1FBB1F39
:10234000A617B70710F0A61BB70B881F991F5A9541
:10235000A9F780959095BC01CD01089597FB092EB2
:1023600007260AD077FD04D0E5DF06D000201AF456
:10237000709561957F4F0895F6F7909581959F4FE1
:062380000895F894FFCF60
:102386005A000100020001000B00020001000200D9
:102396000300030002000300040003000D00040014
:1023A6000300040005000500040005000600050002
:1023B6000F000600050006000700070006000700DC
:1023C60008000700110008000700080009000900BE
:1023D6000800090013000B0001000B0015000D009A
:1023E60003000D0017000F0005000F001900110073
:1023F600070011001B001300090013001D00150043
:102406000B001500160015001F001600150016001B
:102416001700170016001700180017000D00170008
:1024260021001800170018001900190018001900DB
:102436001A0019000F00190023001A0019001A00CB
:102446001B001B001A001B001C001B0011001B00B8
:1024560025001C001B001C001D001D001C001D008B
:1024660013001D0027001F0015001F002800210073
:102476002A00210017002300190023002C00250044
:102486001B0025002E0027001D0027003000280015
:102496001F002800290028003300290028002900F1
:1024A6002A002A0029002A002B002A0021002A00DF
:1024B60035002B002A002B002C002C002B002C00B2
:1024C6002D002C0023002C0037002D002C002D00A1
:1024D6002E002E002D002E002F002E0025002E008F
:1024E60039002F002E002F00300030002F00300062
:1024F600270030003B00300031003100300033004F
:10250600280033003D0035002A0035003F00370023
:10251600410037002C003900430039002E003B00F3
:1025260045003B0030003D0033003D003E003D00CD
:1025360047003E003D003E003F003F003E003F009A
:1025460040003F0035003F00490040003F0040008A
:102556004100410040004100420041003700410077
:102566004B0042004100420043004300420043004A
:1025760044004300390043004D004400430044003A
:1025860045004500440045003B0045004F0047001C
:102596003D00470051004900530049003F004B00F1
:1025A60041004B0055004D0043004D0057004F00C1
:1025B60045004F005900510047005100520052009B
:1025C6005100520053005300520053005400530070
:1025D600490054005300540055005500540055005E
:1025E600560055004B0055005A005600550056003F
:1025F6005700570056005700580057004D00580026
:102606005700580059005900580059004F005A0009
:08261600550000000000C8009F
:00000001FF
