:100000000C94B3000C94D4000C94D4000C94D40041
:100010000C94D4000C943F050C941A050C94D40055
:100020000C94D4000C94D4000C94D4000C94D40000
:100030000C94D4000C94D4000C94D4000C94D400F0
:100040000C94D4000C94D4000C94D4000C94D400E0
:100050000C94D4000C94D4000C94D4000C94D400D0
:100060000C94D4000C94D4000C94D4000C94D400C0
:100070000C94D4000C94D4000C94D4000C94D400B0
:100080000C94D4000C94D4000C94D4000C94D400A0
:100090000C94D4000C94D4000C94D4000C94D40090
:1000A0000C94D4000C94D4000C94D4000C94D40080
:1000B0000C94D4000C94D4000C94D4000C94D40070
:1000C0000C94D4000C94D4000C94D4000C94D40060
:1000D0000C94D4000C94D4000C94D4000C94D40050
:1000E0000C94D40007634236B79BD8A71A396856D8
:1000F00018AEBAAB558C1D3CB7CC5763BD6DEDFD4A
:10010000753EF6177231BF000000803F0800000006
:10011000BE922449123EABAAAA2ABECDCCCC4C3EFC
:1001200000000080BEABAAAAAA3E00000000BF00EB
:100130000000803F0000000000084178D3BB4387E7
:10014000D1133D190E3CC3BD4282AD2B3E68EC82FB
:1001500076BED98FE1A93E4C80EFFFBE01C4FF7F80
:100160003F000000000011241FBECFEFD1E2DEBF30
:10017000CDBF00E00CBF15E0A0E0B2E0E0E6FCE19E
:1001800000E00BBF02C007900D92A033B107D9F772
:100190001CE0A0E3B5E001C01D92AE35B107E1F768
:1001A0000E94FC070C942E0E0C94000086E69EE044
:1001B0000197F1F700004098419880E388B9429A8E
:1001C000EFEFF7E43197F1F700C000004298E6E660
:1001D000FEE03197F1F700004098419888B9429AC3
:1001E000EFEFF7E43197F1F700C000004298E6E640
:1001F000FEE03197F1F700004098419888B9429AA3
:100200008FEF97E40197F1F700C000004298E6E60F
:10021000FEE03197F1F700004098419880E288B9FC
:10022000429A8FEF97E40197F1F700C000004298DF
:10023000089598B19F7098B998B1282F207F922B7C
:1002400098B940984198429AEFEFF7E43197F1F767
:1002500000C00000429898B19F7098B998B18295FB
:10026000807F892B88B940984198429A8FEF97E414
:100270000197F1F700C00000429808950E94D6004F
:1002800086E69EE00197F1F7000088E20E941901DE
:1002900081E00E94190186E00E9419018EE00E940F
:1002A000190180E80E941901089598B19F7098B9CA
:1002B00098B1282F207F922B98B9409A4198429A62
:1002C000EFEFF7E43197F1F700C00000429898B1E2
:1002D0009F7098B998B18295807F892B88B9409A90
:1002E0004198429A8FEF97E40197F1F700C0000020
:1002F0004298089580E80E9419010895CF93DF93F2
:10030000EC018881882331F021960E945501899162
:100310008823D9F7DF91CF910895823079F0833027
:1003200018F48130C9F405C0833069F08430A1F439
:100330000FC0862F81580E9419010895862F81547D
:100340000E9419010895862F8D560E941901089563
:10035000862F8D520E94190108950F931F93CF93FA
:10036000DF938A01E901882311F0662319F40E94C2
:100370007A0102C00E948D01C530D10571F4C80117
:1003800060E177E20E94070ECB01C0969093530C78
:100390008093520C0E94550103C0C430D105B9F4BA
:1003A000C80168EE73E00E94070ECB0170935D0CEC
:1003B00060935C0C6AE070E00E94070EC096909318
:1003C000550C8093540C0E94550181E001C080E0DF
:1003D000C330D10511F08130B1F4C80164E670E09A
:1003E0000E94070ECB0170935D0C60935C0C6AE079
:1003F00070E00E94070EC0969093570C8093560CA5
:100400000E94550181E0C230D10511F08130B1F474
:100410002AE030E0C801B9010E94070ECB017093B9
:100420005D0C60935C0CB9010E94070EC09690931E
:10043000590C8093580C0E94550181E0C130D105C0
:1004400011F0813061F4C8016AE070E00E94070E8B
:10045000C09690935B0C80935A0C0E945501C63055
:10046000D1051CF085E40E945501DF91CF911F91C9
:100470000F9108959C01E2EAF2E04EE555E0DF01BC
:10048000808191818217930729F08281938182175D
:10049000930739F411961C921E9213961C921E9289
:1004A00012973496E417F50751F708952F923F926B
:1004B0004F925F926F927F928F929F92AF92BF9274
:1004C000CF92DF92EF92FF920F931F93CF93DF9320
:1004D000CDB7DEB728970FB6F894DEBF0FBECDBFFD
:1004E0001C014B0180912E0590912F059C01220F3C
:1004F000331F220F331F820F931F885B9A4F25E013
:1005000088349207A1F098F0ACE4B5E0FD0134978F
:100510002FEF3FEF4FE057E261E0318320835383B9
:1005200042836C9335961596E817F907B0F3F401FA
:10053000EE0FFF1FEE0FFF1FE80DF91DE85BFA4FEE
:10054000138212821482C0902E05D0902F05A40130
:10055000662477240F2EFCE44F2EF5E05F2EF02D5D
:10056000C20104979C838B834D825E826EE275E0AC
:100570000F2EF2EAAF2EF2E0BF2EF02DC114D104FF
:1005800009F46EC0F201EB80FC800D811E81D30165
:10059000CA01880F991F880F991F840F951F885BC8
:1005A0009A4F9C012E5F3F4F3A83298318870F8310
:1005B00087017F0138C0808191818417950729F4D4
:1005C000828193818A179B0739F03496E617F707E3
:1005D00091F738872F831BC038872F83F9018081DB
:1005E0008130A9F4E981FA81808191810196F80135
:1005F000228133818217930750F451834083E9812C
:10060000FA81808191810196F8019383828311960A
:100610002F8138852B5F3F4F38872F830B5F1F4F0C
:10062000AC15BD0520F4F5012F813885C4CFAFE0AE
:10063000B7E2A30193018701F8018081813041F481
:100640003297808191818A179B0710F4DC01A90100
:100650002F5F3F4F0B5F1F4F2C153D0569F701C002
:10066000A301CA01880F991F880F991F840F951F36
:10067000885B9A4FDC0114961C921497421553051F
:1006800009F07CCF0F2EF2ECCF2EFAE0DF2EF02D0A
:10069000F601910140E050E008E415E001C0AB0133
:1006A00021933193BA016F5F7F4FC901880F991F62
:1006B000880F991F820F931F800F911FDC012D91CE
:1006C0003C9111978216930651F7FB01EE0FFF1F25
:1006D000EE53F54F91828082CA01029690933109C0
:1006E00080933009BFEF4F3F5B0779F0A2E3B9E099
:1006F000CA01880F991F8C53954FF60121913191B2
:100700002D933D93E817F907C9F760903009709071
:100710003109C301880F991F0F2EF0EC8F2EFAE0DC
:100720009F2EF02D880E991E76010F2EFAE0AF2E27
:10073000BB24F02D0F2EF5E44F2E5524F02D0F2E57
:10074000F7E52F2E3324F02D3BC0F70120813181B6
:100750000280F381E02DC901B5010E941B0E7A834E
:100760006983CF01B5010E941B0E89819A8186178A
:100770009707A1F42E173F073CF4E3E5F0E0D7011B
:100780001196FC93EE9318C0E217F307ACF4EEE475
:10079000F0E0D7011196FC93EE930EC0E217F30739
:1007A0002CF4D70111963C922E9206C02E173F07CB
:1007B0001CF4F7015182408222E030E0E20EF31E89
:1007C000E814F90411F631E063167104E9F1F60159
:1007D00083E090E022E030E041E050E0DF01608122
:1007E0006E3419F41182108206C06081653419F4E8
:1007F0005183408307C06C91633521F411963C937B
:100800002E9306C06C91673519F411969C938E93C4
:100810003296E815F90511F7F60180E090E06AE5F7
:1008200070E001C0CA0140815181DA01A81BB90BF7
:10083000A69F9001A79F300DB69F300D11242193E4
:100840003193E815F90571F740913009509131095C
:1008500041305105C1F14150504020E030E063E0AB
:1008600070E0AA24BB24A39488249924689481F876
:1008700004E010E07A01A9019601F90180819181DB
:100880008A35910521F0BEEF823F9B0719F47183F1
:10089000608312C0A1E08E309A0721F0BFEF863A44
:1008A0009B0719F4B182A08207C0009719F4118345
:1008B000008302C0918280824F5F5F4F2E5F3F4F67
:1008C0004E155F05D0F228960FB6F894DEBF0FBE26
:1008D000CDBFDF91CF911F910F91FF90EF90DF90EF
:1008E000CF90BF90AF909F908F907F906F905F90D0
:1008F0004F903F902F90089581B18F6081B982B160
:10090000807F82B9EAE0F1E0808188618083EBE05A
:10091000F1E0808188618083089587B1876F87B90E
:1009200088B1807888B9089510BA11BA1092070179
:100930001092080108956C98749A08956D98759AAC
:1009400008953B9A439808950E947C040E949B045A
:100950000E949E040E948D040E9494040E94A1049F
:100960000895E1E2F1E010828FEF8093250191E09C
:1009700090932401109229018093280110922B0159
:1009800080932A0110922D0180932C0189EA809393
:1009900020018BE080830895EAE7F0E01082109256
:1009A0007B0080E280937C0080E880BF86E88083C3
:1009B0000895883018F098E090937B0087708062EB
:1009C00080937C00EAE7F0E080818064808380810E
:1009D00084FFFDCF80917900EAE7F0E0908190619B
:1009E000908310927B000895CF93DF93D82FC62F6A
:1009F000842F0E94D904482F80933A058D2F6C2FA5
:100A000050E023E030E00E94AD01DF91CF910895E6
:100A1000F894EAE6F0E0808182608083EC9A789432
:100A20000895F894EAE6F0E0808188608083ED9A8A
:100A3000789408951F920F920FB60F9211248F93FE
:100A40009F93AF93BF938091400590914105A091F2
:100A50004205B09143050196A11DB11D809340054B
:100A600090934105A0934205B0934305BF91AF9188
:100A70009F918F910F900FBE0F901F9018951F920E
:100A80000F920FB60F9211248F939F93AF93BF9342
:100A90008091440590914505A0914605B091470588
:100AA0000196A11DB11D8093440590934505A09327
:100AB0004605B0934705BF91AF919F918F910F90DD
:100AC0000FBE0F901F9018958093280160932A0104
:100AD000089592B1907F8F70982B92B9089586B146
:100AE000886088B9089586B1877F88B9089586E0BF
:100AF0000E946905089589E00E946905089585E0CE
:100B00000E94690508958AE00E946905089584E0BD
:100B10000E946905089582E00E946905089581E0B8
:100B20000E946905089588E00E946905089580E0A3
:100B30000E94690508950F931F93CF93BC0180E035
:100B400090E00E944C0B28E431EE42E850E40E9411
:100B5000B30A0E94200BDC01CB01A0E0B0E01092B0
:100B600040051092410510924205109243051092E3
:100B70004405109245051092460510924705F1E094
:100B8000C0E040914005509141056091420570914F
:100B9000430500914405109145052091460530918B
:100BA0004705EF2F481759076A077B0708F4EC2F12
:100BB000EE2349F44F2F081719072A073B0708F4BB
:100BC0004C2F4423F1F20E949705CF911F910F9172
:100BD0000895BC0180E090E00E944C0B25EE30EDC2
:100BE0004AEA50E40E94B30A0E94200B462F572F76
:100BF000682F792F109240051092410510924205FE
:100C0000109243058091400590914105A0914205C5
:100C1000B0914305481759076A077B0798F70E9468
:100C200097050895CF93DF93EC010E947705CE01DD
:100C30000E94E905DF91CF910895CF93DF93EC01F6
:100C40000E947B05CE010E94E905DF91CF910895B6
:100C5000CF93DF93EC010E947F05CE010E949B059C
:100C6000DF91CF910895CF93DF93EC010E9483052C
:100C7000CE010E949B05DF91CF910895CF93DF9322
:100C8000EC010E948705CE01880F991F0E949B05E9
:100C9000DF91CF910895CF93DF93EC010E948B05F4
:100CA000CE01880F991F0E949B05DF91CF91089577
:100CB000CF93DF93EC010E948F05CE01880F991F1F
:100CC0000E949B05DF91CF910895CF93DF93EC01B4
:100CD0000E949305CE01880F991F0E949B05DF910A
:100CE000CF9108950F931F93682F70E080E090E0FC
:100CF0000E944C0B2FEE39EC43E95FE30E943D0C60
:100D0000B62FA72F382F292F60E070E080E89FE3EF
:100D1000422F0B2F1A2F232F342FA90198010E9445
:100D2000B30A2AE939EF4EE255E40E94DA0B20E0DB
:100D300030E040E251E40E94DA0B0E941B0B88274E
:100D400077FD8095982F0E944E0B0E941B0B862FDB
:100D5000972F23E08132920710F080E293E01F91F9
:100D60000F91089582E00E94D904809331050E947A
:100D70007F0588EC68EC0E9464058091310586311E
:100D800088F30895CF92DF92EF92FF920F931F9313
:100D9000CF93DF93C1E0D0E0EE24FF24CC24DD2408
:100DA0006894C1F801E010E082E00E94D9048093C9
:100DB00031058BE00E94D90480933D050E947206A4
:100DC00090933C0580933B0581559040833191057C
:100DD000C8F4C130D105B1F4809136059091370542
:100DE000009731F41093370500933605E7010AC0E8
:100DF0008130910531F4D0923705C0923605E70174
:100E000001C0E70180913B0590913C058536910535
:100E100018F0209709F4E8010E94830588EC68EC3B
:100E20000E94640580913105863108F4BDCFDF91C1
:100E3000CF911F910F91FF90EF90DF90CF90089589
:100E400080918002909181028130910591F18230F0
:100E5000910561F0E2E8F2E021E030E081919191CA
:100E60008130910541F182309105D9F40E949705B6
:100E70008FEF9FEFA9E581509040A040E1F700C0BF
:100E800000000E946F058FEF9FEFADEEB2E0815042
:100E90009040A040B040D9F700C0000020E030E012
:100EA0000AC02F5F3F4F21313105C1F620E030E00D
:100EB00002C020E030E0F901EE0FFF1FEE0FFF1F30
:100EC000EE0FFF1FE050FE4F80819181009781F56A
:100ED000F901EE0FFF1FEE0FFF1FEE0FFF1FE05097
:100EE000FE4F82819381009719F5F901EE0FFF1FE4
:100EF000EE0FFF1FEE0FFF1FE050FE4F8481958124
:100F00000097B1F4F901EE0FFF1FEE0FFF1FEE0F78
:100F1000FF1FE050FE4F86819781009749F4F90149
:100F2000EE0FFF1FE058FD4F1182108280E090E02D
:100F30000895CF93DF9324E030E0B9010E941B0EA7
:100F4000E901C81BD90B81E067E0AE0122E030E087
:100F50000E94AD014091C20A5091C30A4C0F5D1F1F
:100F600081E06AE022E030E00E94AD018091C20A97
:100F70009091C30A8C0F9D1F9C0123703070211526
:100F80003105B9F064E070E00E941B0E82309105DB
:100F900039F487E890E00E9433060E94C20609C037
:100FA0008330910531F48DE290E00E9433060E9477
:100FB000C2068091C20A9091C30A8C0F9D1F64E003
:100FC00070E00E941B0E8130910531F48DE290E0BB
:100FD0000E9428060E94B206DF91CF910895F894EE
:100FE0000E94A4040E94CC040E94B1040E9408053F
:100FF0000E941105789408952F923F924F925F922C
:101000006F927F928F929F92AF92BF92CF92DF9218
:10101000EF92FF920F931F93CF93DF930E94EF07FE
:101020000E94D6000E943E0184E080933305109216
:10103000350510923405AA24BB2401E310E02224D4
:1010400033244424689442F80F2EF2ECEF2EFAE099
:10105000FF2EF02D0F2EF2E36F2EF9E07F2EF02DF4
:10106000D22CC32C942CA114B10429F4309239054C
:101070002092380506C081E090E090933905809376
:1010800038050E942007882E592E81E061E0A801D2
:1010900022E030E00E94AD01C82DD52D81E0642D05
:1010A000AE0122E030E00E94AD01C801BE010E9405
:1010B000560280913405909135050E949907F701F9
:1010C00080819181909335058093340583E00E945F
:1010D000D9048093320582E00E94D90480933105BF
:1010E00081E00E94D904809330058BE00E94D904EE
:1010F00080933D050E94720690933C0580933B05CA
:10110000815590408133910508F087C00E94970572
:101110008FEF9FEFACE281509040A040E1F700C01C
:101120000000209138053091390580913009909167
:10113000310901978217930709F040C013C08081DD
:101140009181C817D90711F4118210822F5F3F4F88
:1011500032962430310599F74F5F5F4F403151058A
:1011600011F40DC0A101FA01EE0FFF1FEE0FFF1FDA
:10117000EE0FFF1FE050FE4F2D2D3C2DE0CF82E003
:1011800065E0AE0122E030E00E94AD01882D952D92
:101190000E943A0280913805909139050197880F95
:1011A000991F860D971DDC010D911C9182E068E06E
:1011B000A80122E030E00E94AD01B8C1C901880F4A
:1011C000991F860D971DFC014081518182E065E0E9
:1011D00022E030E00E94AD01809138059091390500
:1011E000880F991F860D971DDC018D919C910E949F
:1011F0003A0280913805909139050197880F991F1F
:10120000860D971DFC010081118182E068E0A80134
:1012100022E030E00E94AD0189C180913105853125
:1012200090F590913205953170F59091300595319A
:1012300050F580913305813031F40E9477058AEFB3
:101240006AEF0E94640580913305823031F40E9478
:1012500077058AEA6AEF0E9464058091330583303E
:1012600031F40E9477058AEF6AEA0E946405809152
:101270003305843009F02ACF0E9477058AEF6AEFA0
:101280000E94640523CF863190F09091320595310C
:1012900070F490913005953150F40E9477058AEFF3
:1012A0006AEF0E94640581E0809333050FCF85319A
:1012B00010F590913205963170F02091300525316E
:1012C00050F482E0809333050E9477058AEA6AEF42
:1012D0000E946405FBCE953170F4909130059631F3
:1012E00050F083E0809333050E9477058AEF6AEA25
:1012F0000E946405EBCE863108F4E8CE8091320579
:10130000863120F090913005953141F4853108F017
:10131000DDCE80913005863108F4D8CE9092330529
:101320008091380590913905880F991F8E0D9F1D6A
:10133000DC014D915C9182E061E022E030E00E94AE
:10134000AD012091380530913905C901880F991FE9
:101350008E0D9F1DFC018081918181309105A1F44A
:1013600080913405909135050196909335058093D1
:1013700034058BE490E00E9412068DE290E00E941A
:1013800028060E94B206C8C08430910571F480918D
:101390003405909135050496909335058093340576
:1013A0008DE290E00E941206B7C083309105F9F4F7
:1013B000809134059091350503969093350580937F
:1013C00034058BE490E00E9412068DE290E00E94CA
:1013D00033060E94C2060E9497058FEF9FEFACE292
:1013E00081509040A040E1F700C0000095C08230DD
:1013F0009105A1F480913405909135050296909362
:101400003505809334058BE490E00E94120682E853
:1014100090E00E9433060E94C2067EC0809130098F
:101420009091310901972817390709F075C040914B
:1014300034055091350582E06CE022E030E00E94F6
:10144000AD0128E032E0A0E8B2E0A10113C0819133
:101450009191C817D90719F411961C921E92E217A0
:10146000F307A9F74F5F5F4F285F3F4F1296403158
:10147000510551F0FA01EE0FFF1FEE0FFF1FEE0FA7
:10148000FF1FE050FE4FE3CF8BE490E00E94120676
:1014900030923705209236058DE290E00E943306A7
:1014A0000E94C2068DE290E00E9433060E94C206AE
:1014B0000E94970580913605909137050097F9F0C5
:1014C000E1010E946F058FEF9FEFA9E581509040E9
:1014D000A040E1F700C000000E9473058FEF9FE776
:1014E000A6E181509040A040E1F700C000002196A5
:1014F0008091360590913705C817D90710F3809170
:10150000380590913905880F991F8E0D9F1DDC01BC
:101510000D911C9111970AC0809138059091390561
:1015200001969093390580933805D0CD0894A11C7D
:10153000B11CB4E6AB16B10409F095CD80E090E0A3
:10154000DF91CF911F910F91FF90EF90DF90CF909F
:10155000BF90AF909F908F907F906F905F904F90D3
:101560003F902F9008950CD0EBC0E3D040F0DAD03C
:1015700030F021F45F3F19F0CCC0511115C1CFC03C
:10158000F0D098F39923C9F35523B1F3951B550B6C
:10159000BB27AA2762177307840738F09F5F5F4F46
:1015A000220F331F441FAA1FA9F333D00E2E3AF087
:1015B000E0E830D091505040E695001CCAF729D0A1
:1015C000FE2F27D0660F771F881FBB1F26173707F0
:1015D0004807AB07B0E809F0BB0B802DBF01FF2720
:1015E00093585F4F2AF09E3F510568F092C0DCC0CF
:1015F0005F3FECF3983EDCF3869577956795B7955A
:10160000F7959F5FC9F7880F911D9695879597F974
:101610000895E1E0660F771F881FBB1F62177307ED
:101620008407BA0720F0621B730B840BBA0BEE1F02
:1016300088F7E095089504D06894B111B5C0089575
:1016400098D088F09F5790F0B92F9927B751A0F004
:10165000D1F0660F771F881F991F1AF0BA95C9F746
:1016600012C0B13081F09FD0B1E008959CC0672FC7
:10167000782F8827B85F39F0B93FCCF386957795F6
:101680006795B395D9F73EF49095809570956195DF
:101690007F4F8F4F9F4F0895E89409C097FB3EF40A
:1016A00090958095709561957F4F8F4F9F4F9923AF
:1016B000A9F0F92F96E9BB279395F695879577952D
:1016C0006795B795F111F8CFFAF4BB0F11F460FFED
:1016D0001BC06F5F7F4F8F4F9F4F16C0882311F045
:1016E00096E911C0772321F09EE8872F762F05C059
:1016F000662371F096E8862F70E060E02AF09A95F4
:10170000660F771F881FDAF7880F9695879597F9E8
:10171000089597F99F6780E870E060E008959FEF73
:1017200080EC089500240A94161617061806090678
:10173000089500240A941216130614060506089547
:10174000092E0394000C11F4882352F0BB0F40F4CF
:10175000BF2B11F460FF04C06F5F7F4F8F4F9F4F0F
:10176000089557FD9058440F551F59F05F3F71F091
:101770004795880F97FB991F61F09F3F79F08795F8
:101780000895121613061406551FF2CF4695F1DF81
:1017900008C0161617061806991FF1CF8695710511
:1017A000610508940895E894BB2766277727CB0145
:1017B00097F908950BD0C4CFB5DF28F0BADF18F041
:1017C000952309F0A6CFABCF1124EECFCADFA0F34B
:1017D000959FD1F3950F50E0551F629FF001729FC6
:1017E000BB27F00DB11D639FAA27F00DB11DAA1FE5
:1017F000649F6627B00DA11D661F829F2227B00D32
:10180000A11D621F739FB00DA11D621F839FA00DBC
:10181000611D221F749F3327A00D611D231F849F0C
:10182000600D211D822F762F6A2F11249F57504063
:101830008AF0E1F088234AF0EE0FFF1FBB1F661FFE
:10184000771F881F91505040A9F79E3F510570F0B7
:1018500060CFAACF5F3FECF3983EDCF38695779597
:101860006795B795F795E7959F5FC1F7FE2B880FB2
:10187000911D9695879597F90895FA01EE0FFF1F30
:1018800030962105310599F16115710561F48038B3
:10189000BFE39B0749F168949038810561F0803877
:1018A000BFEF9B0741F0992342F5FF3FE10531056A
:1018B000210511F1E8940894E795D901AA2329F4A8
:1018C000AB2FBE2FF85FD0F310C0FF5F70F4A6956A
:1018D000E0F7F73950F019F0FF3A38F49F779F930B
:1018E0000CD00F9007FC905808953EF018CF60E0A0
:1018F00070E080E89FE308954FE79F775F934F93F1
:101900003F932F939ED02F913F914F915F9152DF44
:1019100005C019F40EF0FDCE46CF01CF2ADFC8F383
:101920009638C0F707F80F92E8942BE33AEA48EBB1
:101930005FE74EDF0F920F920F924DB75EB70F9297
:10194000C0D0E4EEF0E016D04F915F91EF91FF919F
:10195000E595EE1FFF1F49F0FE57E0684427EE0FA4
:10196000441FFA95E1F74195550B32D00F9007FED1
:1019700026C00895DF93CF931F930F93FF92EF92AA
:10198000DF927B018C01689405C0DA2EEF011EDF27
:10199000FE01E894A5912591359145915591AEF3BD
:1019A000EF01D4D0FE019701A801DA9479F7DF9016
:1019B000EF90FF900F911F91CF91DF9108959B01C0
:1019C000AC0160E070E080E89FE3CDCDA2CE11C114
:1019D000D0DEE8F39923D9F3940F511DBBF3915056
:1019E000504094F059F0882332F0660F771F881F1B
:1019F00091505040C1F79E3F510544F7880F911D0B
:101A00009695879597F908955F3FACF0983E9CF0C6
:101A1000BB27869577956795B79508F4B160939540
:101A2000C1F7BB0F58F711F460FFE8CF6F5F7F4F2E
:101A30008F4F9F4FE3CFB8CE0EF0DBC070CE6894CF
:101A400068CE97DEC8F39923D1F3C6F3DF93CF9323
:101A50001F930F93FF92C92FDD2788232AF0219728
:101A6000660F771F881FDAF720E030E040E85FEB71
:101A70009FE3883920F0803E30F021968F7755D053
:101A8000ECE0F1E003C051D0E9E3F1E073DF8B015A
:101A9000BE01EC01FB2E6F5771097595771F880BFE
:101AA000990BFCDD28E132E741E35FE38FDEAF2DE8
:101AB0009801AE01FF900F911F91CF91DF9146D019
:101AC0003FCEFA01DC01AA0FBB1F9B01AC01BF573F
:101AD00028F422273327442750781FC0B75188F4B1
:101AE000AB2F0024469537952795011CA395D2F37B
:101AF000002069F0220F331F441FB395DAF30DD095
:101B000013C061307105A0E88A07B94630F49B0123
:101B1000AC016627772788279078309621F02083BC
:101B200031834283538308955058BB27AA270ED090
:101B300007CEF8DD30F0FDDD20F031F49F3F11F4E9
:101B40001EF4EDCD0EF4E095E7FBE3CDE92F09DEC1
:101B500080F3BA17620773078407950718F071F4CA
:101B60009EF521CE0EF4E0950B2EBA2FA02D0B0181
:101B7000B90190010C01CA01A0011124FF27591BD2
:101B800099F0593F50F4503E68F11A16F040A22FD8
:101B9000232F342F4427585FF3CF46953795279549
:101BA000A795F0405395C9F77EF41F16BA0B620B48
:101BB000730B840BBAF09150A1F0FF0FBB1F661F8F
:101BC000771F881FC2F70EC0BA0F621F731F841FD2
:101BD00048F4879577956795B795F7959E3F08F0F8
:101BE000B3CF9395880F08F09927EE0F97958795B7
:101BF00008959F3F31F0915020F487957795679530
:101C0000B795880F911D9695879597F90895AA1B0A
:101C1000BB1B51E107C0AA1FBB1FA617B70710F0D7
:101C2000A61BB70B881F991F5A95A9F78095909509
:101C3000BC01CD01089597FB092E07260AD077FD38
:101C400004D0E5DF06D000201AF4709561957F4F2F
:101C50000895F6F7909581959F4F0895F894FFCFDA
:101C600044004D004F00580042004B004D0056000C
:101C700040004B00490054003E004900470052001C
:101C8000440039002F003B004200370039002D008E
:101C90004000370035002B003E003300350029009E
:101CA00016001F00290021001800210023002B002E
:101CB0001A0023002D0025001C0025002F002700FE
:101CC00016000B0002000D0018000D000F000400AC
:101CD0001A000F00060011001C001100080013007C
:101CE00001000100010001000100010001000100EC
:101CF00001000100010001000100010001000100DC
:101D000002000100020001000B00020001000200BD
:101D10000300030002000300040003000D000400A0
:101D2000030004000500050004000500060005008E
:101D30000F00060005000600070007000600070068
:101D4000080007001100080007000800090009004A
:101D50000800090013000B0001000B0015000D0026
:101D600003000D0017000F0005000F0019001100FF
:101D7000070011001B001300090013001D001500CF
:101D80000B001500160015001F00160015001600A8
:101D90001700170016001700180017000D00170095
:101DA0002100180017001800190019001800190068
:101DB0001A0019000F00190023001A0019001A0058
:101DC0001B001B001A001B001C001B0011001B0045
:101DD00025001C001B001C001D001D001C001D0018
:101DE00013001D0027001F0015001F002800210000
:101DF0002A00210017002300190023002C002500D1
:101E00001B0025002E0027001D00270030002800A1
:101E10001F0028002900280033002900280029007D
:101E20002A002A0029002A002B002A0021002A006B
:101E300035002B002A002B002C002C002B002C003E
:101E40002D002C0023002C0037002D002C002D002D
:101E50002E002E002D002E002F002E0025002E001B
:101E600039002F002E002F00300030002F003000EE
:101E7000270030003B0030003100310030003300DB
:101E8000280033003D0035002A0035003F003700B0
:101E9000410037002C003900430039002E003B0080
:101EA00045003B0030003D0033003D003E003D005A
:101EB00047003E003D003E003F003F003E003F0027
:101EC00040003F0035003F00490040003F00400017
:101ED0004100410040004100420041003700410004
:101EE0004B004200410042004300430042004300D7
:101EF00044004300390043004D00440043004400C7
:101F000045004500440045003B0045004F004700A8
:101F10003D00470051004900530049003F004B007D
:101F200041004B0055004D0043004D0057004F004D
:101F300045004F0059005100470051005200520027
:101F400051005200530053005200530054005300FC
:101F500049005400530054005500550054005500EA
:101F6000560055004B0056005500560057005700CC
:101F700056005700580057004D00580057005800B1
:101F800059005900580059004F0000000000C800D7
:00000001FF
